:100000000C9463000C948B000C948B000C941404DF
:100010000C9414040C9414040C948B000C948E0413
:100020000C948B000C948B000C948B000C948B0024
:100030000C948B000C948B000C948B000C948B0014
:100040000C94CA030C948B000C9452020C942C0256
:100050000C948B000C948B000C948B000C948B00F4
:100060000C948B000C948B000000000024002700EF
:100070002A0000000008000201000003040700003D
:1000800000000000000000000000250028002B00F8
:1000900000000000230026002900040404040404D6
:1000A0000404020202020202030303030303010227
:1000B00004081020408001020408102001020408F6
:1000C0001020B51A991A11241FBECFEFD8E0DEBF59
:1000D000CDBF11E0A0E0B1E0E2EBFEE302C005908D
:1000E0000D92AC38B107D9F722E0ACE8B1E001C01D
:1000F0001D92A93DB207E1F710E0C2E6D0E004C0CE
:100100002197FE010E94D61BC136D107C9F70E9474
:10011000AB0C0C944C1F0C940000CF92DF92EF922A
:10012000FF920F931F93CF93DF936C017A018B01A2
:10013000C0E0D0E0CE15DF0589F0D8016D918D01CA
:10014000D601ED91FC910190F081E02DC601099559
:10015000892B11F47E0102C02196ECCFC701DF91FB
:10016000CF911F910F91FF90EF90DF90CF90089566
:10017000FC01918D828D981761F0828DDF01A80FAF
:10018000B11D5D968C91928D9F5F9F73928F90E0D1
:1001900008958FEF9FEF0895FC01918D828D981740
:1001A00031F0828DE80FF11D858D90E008958FEF7D
:1001B0009FEF0895FC01918D228D892F90E0805C46
:1001C0009F4F821B91098F739927089581EE91E0CB
:1001D0000E94DA0021E0892B09F420E0822F0895A3
:1001E000FC01848DDF01A80FB11DA35ABF4F2C91D4
:1001F000848D90E001968F739927848FA689B789A3
:100200002C93A089B1898C9180648C93938D848D7B
:10021000981306C00288F389E02D80818F7D80834A
:100220000895EF92FF920F931F93CF93DF93EC010A
:1002300081E0888F9B8D8C8D981305C0E889F989A2
:10024000808185FD24C0F62E0B8D10E00F5F1F4FBF
:100250000F731127E02E8C8DE8120CC00FB607FC2F
:10026000FACFE889F989808185FFF5CFCE010E9418
:10027000F000F1CF8B8DFE01E80FF11DE35AFF4F27
:10028000F0820B8FEA89FB898081806207C0EE894A
:10029000FF896083E889F98980818064808381E0B7
:1002A00090E0DF91CF911F910F91FF90EF90089513
:1002B000CF93DF93EC01888D8823C9F0EA89FB890D
:1002C000808185FD05C0A889B9898C9186FD0FC004
:1002D0000FB607FCF5CF808185FFF2CFA889B989D9
:1002E0008C9185FFEDCFCE010E94F000E7CFDF912A
:1002F000CF91089580E090E0892B29F00E94E600DC
:1003000081110C94000008952091D6013091D701FD
:100310002817390771F49091D5018091D40198176D
:1003200041F0E091D501F0E0EC56FE4F808190E085
:1003300008958FEF9FEF089508951F93CF93DF9354
:10034000DC015C962D913C915D972115310539F4C6
:1003500081E090E013969C938E9312973DC0519646
:10036000ED91FC91529750969C915097892F8095D2
:100370001FB75E964C915E9741FB772770F941FD60
:100380006095F8944081772311F0492B01C04823F0
:100390004083E9012197F1F748E0508160FF02C0F6
:1003A000592B01C058235083E9012197F1F7669535
:1003B000415099F7772321F090818923808303C0EE
:1003C0008081982B90831FBF5C968D919C915D9747
:1003D0000197F1F721E030E0C901DF91CF911F9142
:1003E00008952091D6013091D7012817390771F46B
:1003F0008091D4012091D50190E0805C9F4F821BB9
:10040000910960E470E00E948C1B089580E090E008
:1004100008952091D6013091D70128173907B9F4F2
:100420009091D5018091D401981789F0E091D50180
:10043000F0E0EC56FE4F80812091D50130E02F5F37
:100440003F4F2F7333272093D50190E008958FEF0E
:100450009FEF08950E94471F1F920F920FB60F92B1
:1004600011242F933F934F935F936F937F938F93B9
:100470009F93AF93BF93EF93FF9381EE91E00E9420
:10048000F000FF91EF91BF91AF919F918F917F917C
:100490006F915F914F913F912F910F900FBE0F90F1
:1004A0001F9018951F920F920FB60F9211242F9341
:1004B0008F939F93EF93FF93E091F101F091F201FD
:1004C0008081E091F701F091F80182FD12C09081E6
:1004D0008091FA018F5F8F732091FB01821751F099
:1004E000E091FA01F0E0EF51FE4F958F8093FA0111
:1004F00001C08081FF91EF919F918F912F910F907B
:100500000FBE0F901F90189590E0FC01EE58FF4F22
:100510003491FC01E255FF4F2491FC01E656FF4F58
:10052000E491EE2309F43BC0332339F1333091F0E9
:1005300038F43130A9F0323001F584B58F7D12C026
:10054000373091F03830A1F03430B9F48091800028
:100550008F7D03C0809180008F77809380000DC0D5
:1005600084B58F7784BD09C08091B0008F7703C0B8
:100570008091B0008F7D8093B000F0E0EE0FFF1F00
:10058000EA57FF4FA591B4918FB7F894EC916111A0
:1005900003C020952E2301C02E2B2C938FBF0895CE
:1005A000CF93DF9390E0FC01E255FF4F2491FC01D3
:1005B000E656FF4F8491882361F190E0880F991FE0
:1005C000FC01E859FF4FC591D491FC01EA57FF4F58
:1005D000A591B491611109C09FB7F89488812095C5
:1005E00082238883EC912E230BC0623061F49FB785
:1005F000F8943881822F809583238883EC912E2B69
:100600002C939FBF06C08FB7F894E8812E2B2883C8
:100610008FBFDF91CF9108951F93CF93DF93182F52
:10062000EB0161E00E94D002209711F460E004C069
:10063000CF3FD10539F461E0812FDF91CF911F9138
:100640000C948402E12FF0E0EE58FF4FE491E33088
:10065000F9F048F4E130B9F0E230A1F584B58062F8
:1006600084BDC8BD34C0E730E9F0E83019F1E430AA
:1006700049F580918000806280938000D0938B0048
:10068000C0938A0024C084B5806884BDC7BD1FC0E4
:1006900080918000806880938000D0938900C0930F
:1006A000880015C08091B00080688093B000C0932E
:1006B000B3000DC08091B00080628093B000C09301
:1006C000B40005C0C038D1050CF0B5CFAFCFDF9175
:1006D000CF911F9108953FB7F8948091DD019091DB
:1006E000DE01A091DF01B091E00126B5A89B05C015
:1006F0002F3F19F00196A11DB11D3FBFBA2FA92FA1
:10070000982F8827820F911DA11DB11DBC01CD011D
:1007100042E0660F771F881F991F4A95D1F7089509
:100720008F929F92AF92BF92CF92DF92EF92FF9201
:100730006B017C010E946B034B015C01C114D1046D
:10074000E104F104F1F00E946B03DC01CB01881994
:100750009909AA09BB09883E9340A105B10570F328
:1007600021E0C21AD108E108F10888EE880E83E082
:10077000981EA11CB11CC114D104E104F10419F7A5
:10078000DDCFFF90EF90DF90CF90BF90AF909F9024
:100790008F9008951F920F920FB60F9211242F93EE
:1007A0003F938F939F93AF93BF938091D901909183
:1007B000DA01A091DB01B091DC013091D80123E096
:1007C000230F2D3720F40196A11DB11D05C026E889
:1007D000230F0296A11DB11D2093D8018093D9014A
:1007E0009093DA01A093DB01B093DC018091DD01ED
:1007F0009091DE01A091DF01B091E0010196A11D71
:10080000B11D8093DD019093DE01A093DF01B093D1
:10081000E001BF91AF919F918F913F912F910F90E8
:100820000FBE0F901F9018951F920F920FB60F9248
:1008300011242F933F934F935F936F937F938F93E5
:100840009F93AF93BF93EF93FF93E091D601F09105
:10085000D701309709F451C0968DA685B785858557
:1008600091FF04C09C91892329F447C09C9189235E
:1008700009F043C0A389B4899C9185898095892317
:100880008C93868997890197F1F7608D718DA68584
:10089000B785558538E020E0CB010197F1F7822F2D
:1008A00090E095958795282F4C91452309F0206875
:1008B000315091F7868D81FD20958091D40190E093
:1008C00001968F7399273091D501381749F0A0917F
:1008D000D401B0E0AC56BE4F2C938093D40103C03A
:1008E000868D8160868F828D938D0197F1F7A38924
:1008F000B4899C918589892B8C93FF91EF91BF914D
:10090000AF919F918F917F916F915F914F913F91A7
:100910002F910F900FBE0F901F9018951F920F925E
:100920000FB60F9211242F933F934F935F936F93C2
:100930007F938F939F93AF93BF93EF93FF93E09138
:100940009201F09193010995FF91EF91BF91AF91C1
:100950009F918F917F916F915F914F913F912F91D7
:100960000F900FBE0F901F901895DC0170E0FB01F7
:10097000E255FF4FE4911496EC93149750E0FA017E
:10098000E255FF4FE4911596EC93159766567F4F0D
:10099000FB018491E82FF0E0EE0FFF1FEA57FF4FB5
:1009A0008591949117969C938E931697FA01E6562B
:1009B000FF4F449150E0440F551F40575F4FFA01DD
:1009C0008591949119969C938E931897FB0164914D
:1009D000E62FF0E0EE0FFF1FE859FF4F859194914D
:1009E0001B969C938E931A972F5F3F4F49E3429F2C
:1009F000C001439F900D11248E38FFE69F0710F031
:100A00008DE89FE61D969C938E931C9708950F93F7
:100A10001F93CF93DF93EC018B0184E090E00E9461
:100A20001A1EFC01892BA9F0118300831382128204
:100A30008A819B81892B19F4FB83EA8306C0A881F4
:100A4000B9811396FC93EE931297F983E88381E0C2
:100A500001C080E0DF91CF911F910F9108956F92B7
:100A60007F928F929F92AF92BF92CF92DF92EF923E
:100A7000FF920F931F93CF93DF93EC018A819B81A9
:100A80008230910599F054F4019709F0E3C0EC81AC
:100A9000FD81E088F1880289138931C18330910595
:100AA00009F44EC0049709F491C0D4C0888199819B
:100AB0008130910519F0029719F1CCC0EC81FD81CC
:100AC000E088F1880289138920E030E0A901B701AC
:100AD000C8010E94A81D18160CF0BCC0EE81FF8151
:100AE000C088D188D289C38920E030E0A901B6014D
:100AF0008D2F9C2F0E94A81D18160CF4B0C0AAC000
:100B0000EC81FD81E088F1880289138920E030E0E2
:100B1000A901B701C8010E94A81D0E80DF81C02D68
:100B200018160CF4A8C020E030E0A9016889798982
:100B30008A899B890E94A81D18160CF49CC08AC043
:100B4000888199818130910519F0029709F182C05D
:100B5000EC81FD81E088F1880289138920E030E092
:100B6000A901B701C8010E94A81D18160CF072C097
:100B7000C884D984C6010E942F054B015C0120E086
:100B800030E0A9010E94A81D18160CF487C062C0AD
:100B9000EC81FD81E088F1880289138920E030E052
:100BA000A901B701C8010E94A81DC884D9841816DC
:100BB0000CF47DC0C6010E942F0520E030E0A901A1
:100BC0000E94A81D18160CF472C044C08881998137
:100BD0008130910519F0029701F13CC07884698455
:100BE000872D962D0E942F056B017C0120E030E0BF
:100BF000A9010E94A81D18166CF50A851B85C8015D
:100C00000E942F054B015C0120E030E0A9010E9409
:100C1000A81D18160CF458C01DC0B884A9848B2DCB
:100C20009A2D0E942F056B017C0120E030E0A90184
:100C30000E94A81D0A851B8518160CF450C0C80117
:100C40000E942F0520E030E0A9010E94A81D18167F
:100C50000CF445C0E12CF12C00E010E050C09601EE
:100C60004D2F5C2FB701C8010E94491C87FD47C06A
:100C700076010D2F11C0B888C988DA88CB892B2D51
:100C80003C2D4D2D5C2FB701C8010E94A81D1816E0
:100C9000B4F1EB2CFC2C0D2D1C2F31C0A5019401BF
:100CA000B701C8010E94491C87FD29C00BC0C601BD
:100CB0000E942F059B01AC01B701C8010E94A81D2D
:100CC0001816ECF0E601DACEA5019401C701B601D1
:100CD0000E94491C87FF11C0C72DD62DCFCEC80159
:100CE0000E942F059B01AC01C701B6010E94A81DFF
:100CF00018161CF4CB2DDA2DC1CEE801BFCEB701FA
:100D0000C801DF91CF911F910F91FF90EF90DF907D
:100D1000CF90BF90AF909F908F907F906F900895ED
:100D20004F925F926F927F928F929F92AF92BF92FB
:100D3000CF92DF92EF92FF920F931F93CF93DF93A7
:100D4000CDB7DEB768970FB6F894DEBF0FBECDBF44
:100D50004D875E876F87788B098B1A8B2B8B3C8B2B
:100D60002FA538A949A95AA96FA978AD89AD9AAD1F
:100D70000E94DC1B6D8B7E8B8F8B988F2D853E8523
:100D80004F855889C701B6010E94DC1B6D837E83A5
:100D90008F8398872BA53CA54DA55EA56BA97CA943
:100DA0008DA99EA90E94DC1B6B017C0129893A89CF
:100DB0004B895C89C501B4010E94DC1B69877A8775
:100DC0008B879C872D813E814F8158856D897E89D7
:100DD0008F89988D0E94AD1D4B015C0129853A8554
:100DE0004B855C85C701B6010E94AD1D9B01AC011E
:100DF000C501B4010E94DC1B2B013C012FA538A9C1
:100E000049A95AA969897A898B899C890E94DC1B26
:100E10004B015C012BA53CA54DA55EA56D857E858E
:100E20008F8598890E94DC1B69837A838B839C83DE
:100E3000A5019401C701B6010E94AD1D6B017C01A3
:100E400029813A814B815C816D897E898F89988D5A
:100E50000E94AD1D9B01AC01C701B6010E94DC1BC5
:100E60006B017C01A50194016D817E818F81988544
:100E70000E94AD1D4B015C0129813A814B815C814F
:100E800069857A858B859C850E94AD1D9B01AC018F
:100E9000C501B4010E94DC1B4B015C0120E030E085
:100EA000A901C301B2010E94491C87FF04C077FA5F
:100EB000709477F8709420E030E0A901C701B60182
:100EC0000E94491C87FF04C0F7FAF094F7F8F094E9
:100ED00020E030E0A901C501B4010E94491C87FF50
:100EE00004C0B7FAB094B7F8B0942FE632E143E803
:100EF0005AE3C301B2010E94491C87FD61C0A301EE
:100F00009201C701B6010E944E1C6B017C0120E0DA
:100F100030E0A9010E94491C87FD52C020E030E06A
:100F200040E85FE3C701B6010E94A81D18160CF443
:100F300047C0A3019201C501B4010E944E1C4B01A0
:100F40005C0120E030E0A9010E94491C87FD38C007
:100F500020E030E040E85FE3C501B4010E94A81D35
:100F6000181674F12D813E814F815885C701B60155
:100F70000E94AD1D9B01AC016D857E858F85988992
:100F80000E94DD1BEBADFCAD608371838283938394
:100F900029853A854B855C85C701B6010E94AD1D48
:100FA0009B01AC0169897A898B899C890E94DD1B30
:100FB000EDADFEAD608371838283938381E001C0D8
:100FC00080E068960FB6F894DEBF0FBECDBFDF910C
:100FD000CF911F910F91FF90EF90DF90CF90BF9036
:100FE000AF909F908F907F906F905F904F900895FB
:100FF0000F931F93CF93DF93EC018B0184E090E07C
:101000000E941A1EFC01892BA9F011830083138210
:1010100012828E819F81892B19F4FF83EE8306C093
:10102000A885B9851396FC93EE931297F987E88704
:1010300081E001C080E0DF91CF911F910F91089571
:10104000CF93DF936115710551F0EB016A857B85C4
:101050000E942008CE01DF91CF910C94AF1EDF914A
:10106000CF9108958F929F92AF92BF92CF92DF92CD
:10107000EF92FF920F931F93CF93DF936A017B014F
:1010800048015901FC01C081D1812097C1F0A7011D
:1010900096016A817B818C819D810E94491C81110E
:1010A0000AC0A50194016E817F81888599850E947F
:1010B000491C882331F00990D881C02DE6CF80E00B
:1010C00001C081E0DF91CF911F910F91FF90EF90D0
:1010D000DF90CF90BF90AF909F908F900895AF9288
:1010E000BF92CF92DF92EF92FF920F931F93CF9315
:1010F000DF9300D000D0CDB7DEB75C016801790185
:101100008CE090E049835A836B837C830E941A1E93
:10111000FC0149815A816B817C81892B49F11182C3
:1011200010824283538364837583C682D782E086AC
:10113000F18613861286D50112968D919C91139794
:10114000892B39F41396FC93EE931297ED93FC934D
:101150000DC0D5018D919C91119791838083ED9362
:10116000FC93DC011B96FC93EE931A9781E001C07F
:1011700080E00F900F900F900F90DF91CF911F9113
:101180000F91FF90EF90DF90CF90BF90AF900895B8
:101190002F923F924F925F926F927F928F929F9287
:1011A000AF92BF92CF92DF92EF92FF920F931F9375
:1011B000CF93DF93CDB7DEB72D970FB6F894DEBF90
:1011C0000FBECDBFDC011696ED91FC9117973097BD
:1011D00009F44CC1A081B1818D919C911197861722
:1011E000970709F03FC11C960D911C911D97412C4A
:1011F000512C320149865A866B867C860115110571
:1012000009F41EC1F8010284F385E02DFA83E98315
:10121000309709F412C1D8011296CD90DD90ED906F
:10122000FC90159782809380A480B580A5019401DD
:10123000C701B6010E94491CF80136802780F0855D
:10124000FB83D8011996BC91BC83811105C0032D85
:10125000122DFD87BD83D5C020E030E0A901632DAC
:10126000722D8B819C810E94491C8823A9F0A98141
:10127000BA8116968D919D910D90BC91A02D8D8374
:101280009E83AF83B88720E030E0A901BC01CD0187
:101290000E94491C811151C020E030E0A901632D5A
:1012A000722D8B819C810E94A81D181664F0E98123
:1012B000FA8106811781F085FD87A981BA81199687
:1012C000BC91BD8306C0032D122DEB81ED87FC81FF
:1012D000FD83A7019601C501B4010E94DC1B4B01EF
:1012E0005C0198014D855D810E94AD1D20E030E0DC
:1012F00040E05FE30E94AD1D8B018D879D83A98136
:10130000BA8116962D913D914D915C911997632D5F
:10131000722D8B819C810E94491C87FF05C020E0B3
:1013200030E040EC5FE304C020E030E040E450E413
:10133000C501B4010E944E1C5CC020E030E0A90150
:10134000632D722D8B819C810E94A81D181624F597
:1013500020E030E0A9016D817E818F8198850E9417
:10136000A81D1816CCF42D813E814F815885632D20
:10137000722D8B819C810E94491CA70196018111CD
:1013800013C0C501B4010E94DC1B4B015C01232D7D
:10139000322D4B815C8120C0C12CD12C760100E024
:1013A00010E01D861D822DC0C501B4010E94DC1B0A
:1013B0004B015C012D813E814F815885632D722D3B
:1013C0008B819C810E94DD1B20E030E040E05FE3E8
:1013D0000E94AD1DA50194010E94AD1D8B018D875A
:1013E0009D8320E030E040E05FE3C501B4010E944E
:1013F000AD1D9B01AC01C701B6010E94DD1B6B0155
:101400007C0198014D855D81C701B6010E94AD1D2B
:101410009B01AC0169857A858B859C850E94DD1BCB
:1014200069877A878B879C8798014D855D81C30189
:10143000B2010E94DD1B2B013C0109811A81DECE25
:1014400020E030E0A901C301B2010E94491C8823B9
:1014500069F0A301920169857A858B859C850E943C
:101460004E1C07C00280F381E02DB1CE60E070E039
:10147000CB012D960FB6F894DEBF0FBECDBFDF9126
:10148000CF911F910F91FF90EF90DF90CF90BF9081
:10149000AF909F908F907F906F905F904F903F9014
:1014A0002F900895DC011296ED91FC9113973097DF
:1014B000A1F0A081B1818D919C911197861797071A
:1014C00041F412962D933D934D935C93159781E0D3
:1014D00008950280F381E02DEACF80E008950F9314
:1014E0001F93CF93DF93EC018B0184E090E00E9487
:1014F0001A1EFC01892BA9F011830083138212822A
:101500008A859B85892B19F4FB87EA8706C0A88505
:10151000B9851396FC93EE931297F987E88781E0DB
:1015200001C080E0DF91CF911F910F9108954F92FC
:101530005F926F927F928F929F92AF92BF92CF9263
:10154000DF92EF92FF920F931F93CF93DF933C01B3
:101550008B0184E090E00E941A1EEC01892B09F4B3
:1015600050C0198308831B821A82D80116964C90AA
:10157000169717965C907201E114F10449F182010B
:101580000115110509F1F801C280D380C114D104FD
:10159000C9F0A080B180D6018D909C90F40120818B
:1015A000318142815381D5016D917D918D919C91C5
:1015B0000E94A81D181634F4F80191828082D60189
:1015C000AD92BC928601DCCFF701E280F380D4CFEC
:1015D000D30116968D919C911797892B29F4179614
:1015E000DC93CE93169707C0D3011496ED91FC912E
:1015F0001597D383C2831596DC93CE93149781E01D
:1016000001C080E0DF91CF911F910F91FF90EF908B
:10161000DF90CF90BF90AF909F908F907F906F9012
:101620005F904F9008950F931F93CF93DF93EC013A
:101630008B0184E090E00E941A1EFC01892BA9F026
:1016400011830083138212828A819B81892B19F472
:10165000FB83EA8306C0A881B9811396FC93EE93BD
:101660001297F983E88381E001C080E0DF91CF9198
:101670001F910F91089560E08AE00E94840260E06B
:101680008BE00E94840260E086E00E94840260E0B9
:1016900087E00C9484020F931F93CF93DF93EC01A8
:1016A0008B0161E08AE00E94840260E08BE00E948E
:1016B000840260E086E00E94840261E087E00E948C
:1016C0008402B80189E00E940C03B80185E00E9401
:1016D0000C03209731F0BE01DD0F880B990B0E949F
:1016E0009003DF91CF911F910F910C943B0B0097CA
:1016F00069F0FC0101900020E9F73197AF01481B28
:10170000590BBC0181EE91E00C948D0080E090E0DB
:1017100008958F929F92AF92BF92CF92DF92EF92F5
:10172000FF920F931F93CF93DF93CDB7DEB7A197AF
:101730000FB6F894DEBF0FBECDBF6C01990FEE0857
:10174000FF08F7FE31C0E091E101F091E201019064
:10175000F081E02D6DE281EE91E009958C01222768
:101760003327A9012C193D094E095F0919A2CE01A1
:1017700081967C019AE0892E912CA12CB12CCA0172
:10178000B901A50194010E94A01B605DF70162935D
:101790007F01211531054105510589F7CF010E94CF
:1017A000770B080F191F1EC0A701960119A28E0101
:1017B0000F5D1F4F8AE0C82ED12CE12CF12CCA01FD
:1017C000B901A70196010E94A01B605DF801629318
:1017D0008F01211531054105510589F7CF010E947F
:1017E000770B8C0188E891E00E94770B800F911FA6
:1017F000A1960FB6F894DEBF0FBECDBFDF91CF919B
:101800001F910F91FF90EF90DF90CF90BF90AF901E
:101810009F908F900895CF93DF930E94770BEC01F8
:1018200088E891E00E94770B8C0F9D1FDF91CF918C
:1018300008950F931F93CF93DF93FC01A285B38587
:101840009C918481892B8C93A681B7819C91848102
:10185000809589238C938BE090E00197F1F7A68126
:10186000B7819C918481892B8C9383E290E00197CE
:10187000F1F7A681B7819C918481809589238C930F
:10188000A285B3859C918481809589238C93A085C2
:10189000B1859C918581892309F056C0EF010E9492
:1018A0006B032C853D85890120E030E00855194EF9
:1018B0002F4F3F4FDC01CB01800F911FA21FB31FA1
:1018C0008E879F87A88BB98BE885F98590818D815C
:1018D000892361F40E946B030E851F85288939894D
:1018E000061717072807390778F72EC00E946B03E1
:1018F0002C853D85DC01CB01820F931FA11DB11DFD
:101900008E879F87A88BB98BE885F98590818D811B
:10191000892361F00E946B030E851F852889398910
:10192000061717072807390778F70EC00E946B03C0
:101930002C853D85255031094E855F85241B350B4F
:10194000C901860F971F02C080E090E0DF91CF9120
:101950001F910F910895CF93DF93CDB7DEB7CA548F
:10196000D1090FB6F894DEBF0FBECDBF789484B511
:10197000826084BD84B5816084BD85B5826085BD8B
:1019800085B5816085BD80916E00816080936E0019
:10199000109281008091810082608093810080910B
:1019A00081008160809381008091800081608093BC
:1019B00080008091B10084608093B1008091B0007C
:1019C00081608093B00080917A00846080937A0077
:1019D00080917A00826080937A0080917A008160A1
:1019E00080937A0080917A00806880937A001092C8
:1019F000C10061E089E00E94D00261E085E00E94C0
:101A0000D00261E08AE00E94D00261E08BE00E9497
:101A1000D00261E086E00E94D00261E087E00E948F
:101A2000D002E091F101F091F20182E08083E09137
:101A3000ED01F091EE011082E091EF01F091F001E3
:101A40008FEC80831092F901E091F501F091F6019D
:101A500086E08083E091F301F091F4018081806160
:101A60008083E091F301F091F401808188608083AC
:101A7000E091F301F091F401808180688083E0912E
:101A8000F301F091F40180818F7D80838AE090E002
:101A90000E941A1E5C01E1E0F0E0DC011196FC936B
:101AA000EE9317961C921E92169719961C921E92F0
:101AB000189784E190E00E941A1E9C01C12CD12C41
:101AC00040EFE42E41E4F42EDC01CD92DD92ED9264
:101AD000FC921397412C512C50E7652E52E4752E41
:101AE000FC01448255826682778218964D925D92FF
:101AF0006D927C921B9744865586668677865096B3
:101B00001D921D921D921C925397BC01C5012A96ED
:101B10002FAF2A972B963FAF2B970E94F80784E1AF
:101B200090E00E941A1EFC01108211821282138220
:101B3000C482D582E682F782C086D186E286F386A9
:101B40004486558666867786108A118A128A138A99
:101B5000BC01C5010E94F80784E190E00E941A1EB2
:101B6000FC01108211821282138214821582168265
:101B700017821086118612861386C486D586E6865D
:101B8000F786108A118A128A138A84E190E00E94F3
:101B90001A1E988F8F8BFC01108211821282138281
:101BA0001482158216821782108611861286138679
:101BB00080E090E0A0E7B1E484879587A687B787A7
:101BC000108A118A128A138ABF01C5010E94F80780
:101BD000B5018091B4029091B5020E94130B8AE086
:101BE00090E00E941A1E5C0142E050E0FC0151832B
:101BF0004083178216821186108684E190E00E944D
:101C00001A1E9C8F8B8FDC01CD92DD92ED92FC929F
:101C10001397FC01448255826682778218964D9212
:101C20005D926D927C921B97448655866686778678
:101C300050961D921D921D921C925397BC01C50196
:101C40000E94F80784E190E00E941A1E98A78FA3D3
:101C5000FC011082118212821382C482D582E68234
:101C6000F782C086D186E286F386448655866686EC
:101C70007786108A118A128A138ABC01C5010E94D4
:101C8000F80784E190E00E941A1E98A38F8FDC0170
:101C90001D921D921D921C921397FC0114821582B5
:101CA0001682178218961D921D921D921C921B97E8
:101CB000C486D586E686F78650961D921D921D92A3
:101CC0001C925397BC01C5010E94F80784E190E083
:101CD0000E941A1EFC011082118212821382148249
:101CE000158216821782108611861286138680E06E
:101CF00090E0A0E7B1E484879587A687B787108A2C
:101D0000118A128A138ABF01C5010E94F807B50122
:101D10008091B4029091B5020E94130B8AE090E08A
:101D20000E941A1E4C0143E050E0DC0111965C93C6
:101D30004E9317961C921E92169719961C921E92FD
:101D4000189784E190E028964FAF289729965FAFC7
:101D500029970E941A1E1C01FC01C082D182E282D6
:101D6000F3824482558266827782408651866286FB
:101D700073864486558666867786108A118A128A0B
:101D8000138ABC01C4010E94F80784E190E00E941C
:101D90001A1E9CA38BA3DC011D921D921D921C9206
:101DA0001397FC01C482D582E682F7821896CD9201
:101DB000DD92ED92FC921B97448655866686778667
:101DC00050961D921D921D921C925397BC01C40106
:101DD0000E94F80784E190E00E941A1E2C01FC0189
:101DE0001082118212821382148215821682178247
:101DF0001086118612861386C486D586E686F786F7
:101E0000108A118A128A138ABC01C4010E94F80741
:101E100084E190E00E941A1EFC011082118212825D
:101E200013821482158216821782108611861286FA
:101E3000138680E090E0A0E7B1E484879587A687C9
:101E4000B787108A118A128A138ABF01C5010E94BE
:101E5000F807B4018091B4029091B5020E94130B6F
:101E60008EE090E00E941A1E8C01E1E0F0E0DC01BF
:101E70001196FC93EE9317961C921E921697199644
:101E80001C921E9218971B961C921E921A971D96D2
:101E90001C921E921C9784E190E00E941A1EFC0185
:101EA0001082118212821382C12CD12C66E1E62E9F
:101EB00063E4F62EC482D582E682F782C086D1869C
:101EC000E286F386C486D586E686F786108A118A6E
:101ED000128A138ABC01C8010E94F80784E190E0CD
:101EE0000E941A1EFC011082118212821382C48287
:101EF000D582E682F782C086D186E286F386812C7F
:101F0000912C7FE7A72E73E4B72E84869586A6864C
:101F1000B786108A118A128A138ABC01C8010E94EE
:101F2000F80784E190E00E941A1E3C01DC01CD928A
:101F3000DD92ED92FC921397FC0184829582A68239
:101F4000B78218968D929D92AD92BC921B97848613
:101F50009586A686B78650961D921D921D921C925C
:101F60005397BC01C8010E94F807B8018091B402E0
:101F70009091B5020E94970A8EE090E00E941A1E8E
:101F80008C0182E090E0F8019183808317821682B1
:101F900011861086138612861586148684E190E0D9
:101FA0000E941A1EFC01812C912CA6E9AA2EA3E402
:101FB000BA2E80829182A282B38284829582A68286
:101FC000B78280869186A286B386C12CD12CB6E1D9
:101FD000EB2EB4E4FB2EC486D586E686F786108AFF
:101FE000118A128A138ABC01C8010E94F80784E191
:101FF00090E00E941A1E9EA38DA3DC018D929D92FB
:10200000AD92BC921397FC01C482D582E682F7821E
:102010001896CD92DD92ED92FC921B97812C912C1B
:1020200081E6A82E84E4B82E84869586A686B78697
:1020300050961D921D921D921C925397BD01C8018E
:102040000E94F80784E190E00E941A1EFC01C08201
:10205000D182E282F38284829582A682B7828086D0
:102060009186A286B38684869586A686B786108AD0
:10207000118A128A138ABC01C8010E94F807B801AC
:102080008091B4029091B5020E94970A8EE090E090
:102090000E941A1E8C0128964FAD289729965FAD95
:1020A0002997FC015183408317821682118610867E
:1020B000138612861586148684E190E00E941A1E0B
:1020C0004C01DC011D921D921D921C921397FC0184
:1020D000148215821682178218961D921D921D92E7
:1020E0001C921B97C12CD12C90EAE92E90E4F92E7A
:1020F000C486D586E686F78650961D921D921D925F
:102100001C925397B401C8010E94F80784E190E043
:102110000E941A1E5C01FC01C082D182E282F3821D
:1021200080E090E0A0E2B1E484839583A683B78346
:1021300080879187A287B38784879587A687B7878B
:10214000108A118A128A138AB501C8010E94F80701
:10215000B8018091B4029091B5020E94970A8CE078
:1021600090E00E941A1E7C01FC01118210821382F1
:1021700012821582148217821682118610861386A7
:1021800012862A962FAD2A972B963FAD2B974B8D13
:102190005C8D4115510579F02114310461F081E025
:1021A00090E091838083A2E0B0E0B383A283558363
:1021B0004483378226828CE090E02A962FAF2A97BC
:1021C0002B963FAF2B970E941A1E8C01FC011182A7
:1021D000108213821282158214821782168211864F
:1021E0001086138612862A962FAD2A972B963FAD1E
:1021F0002B972115310579F0E114F10461F081E0AC
:1022000090E09183808383E090E0938382833583A1
:102210002483F186E08684E090E00E941A1E7C010F
:10222000DC0113961C921E9212971D921C92B30110
:102230000E94070587E090E00E941A1EFC016624B8
:102240006394712C7182608214830383F682E58229
:102250001282BC018091B4029091B5020E946F0A73
:102260008CE090E00E941A1E8C01FC011182108209
:1022700013821282158214821782168211861086AA
:10228000138612862F89388D2115310569F0411486
:10229000510451F07182608282E090E093838283E6
:1022A00035832483578246828CE090E00E941A1E78
:1022B0007C01DC0111961C921E9213961C921E92B8
:1022C000129715961C921E92149717961C921E92A6
:1022D000169719961C921E9218971B961C921E9286
:1022E0001A972FA138A521153105B1F04B8D5C8DC2
:1022F0004115510589F082E090E011969C938E93F0
:1023000013969C938E93129715963C932E93149745
:1023100017965C934E9316978CE090E00E941A1EDD
:102320003C01DC0111961C921E9213961C921E9287
:10233000129715961C921E92149717961C921E9235
:10234000169719961C921E9218971B961C921E9215
:102350001A9701151105B1F0E114F10499F081E02B
:1023600090E011969C938E9384E090E013969C935A
:102370008E93129719961C930E9318971B96FC92A6
:10238000EE921A9784E090E00E941A1E8C01FC01E4
:1023900013821282118210826DA17EA10E94070514
:1023A000B401C8010E94070587E090E00E941A1E50
:1023B000FC0122E0E22EF12CF182E0827482638241
:1023C000168305831282BC018091B4029091B502FC
:1023D0000E946F0A8CE090E00E941A1E8C01DC01C2
:1023E00011961C921E9213961C921E92129715968D
:1023F0001C921E92149717961C921E92169719966D
:102400001C921E9218971B961C921E921A972F8947
:10241000388D21153105B1F04F8D58A14115510569
:1024200089F081E090E011969C938E931396FC9234
:10243000EE92129715963C932E93149717965C93F1
:102440004E9316978CE090E00E941A1E7C01DC01EE
:1024500011961C921E9213961C921E92129715961C
:102460001C921E92149717961C921E9216971996FC
:102470001C921E9218971B961C921E921A972BA1C3
:102480003CA121153105A1F02114310489F082E02D
:1024900090E011969C938E9313969C938E93129733
:1024A00015963C932E93149717963C922E9216975E
:1024B0008CE090E00E941A1E4C01DC0111961C92E7
:1024C0001E9213961C921E92129715961C921E92A3
:1024D000149717961C921E92169719961C921E928C
:1024E00018971B961C921E921A9701151105B1F0B0
:1024F000E114F10499F081E090E011969C938E93A1
:1025000084E090E013969C938E93129719961C93F7
:102510000E9318971B96FC92EE921A9784E090E027
:102520000E941A1E8C01FC011382128211821082F9
:102530006DA17EA10E940705B501C8010E94070593
:1025400087E090E00E941A1EFC0183E090E09183F6
:10255000808394828382168305831282BF018091D7
:10256000B4029091B5020E946F0A9E01275F3F4F0F
:102570003C8B2B8BAE01435F5F4F5E8B4D8B82E3B9
:1025800091E00E940B0C80918C0190918D010E9432
:10259000890B80918C0190918D01892B81F466E9E2
:1025A00070E088EE93E00E944B0B68EE73E080E0F1
:1025B00090E00E94900383E491E00E940B0C84E57C
:1025C00091E00E940B0C82EA92E00E94190CBC017F
:1025D00080E090E029E330E040E050E00E94A01B62
:1025E0002D3331054105510528F4C901232B242B36
:1025F000252B11F48CE390E00E94890B80E992E096
:102600000E94190CBC0180E090E029E330E040E03A
:1026100050E00E94A01B2D3331054105510528F4DF
:10262000C901232B242B252B11F48CE390E00E946D
:10263000890B8EE792E00E94190CBC0180E090E0CB
:1026400029E330E040E050E00E94A01B2D3331052B
:102650004105510528F4C901232B242B252B11F406
:102660008CE390E00E94890B80E992E00E94190CB3
:10267000BC0180E090E029E330E040E050E00E94BF
:10268000A01B2D3331054105510528F4B901232B39
:10269000242B252B11F46CE370E0072E000C880B23
:1026A000990B0E94F81C9B01AC0161E070E08091E5
:1026B000B4029091B5020E94520A82EA92E00E940E
:1026C000190CBC0180E090E029E330E040E050E0EC
:1026D0000E94A01B2D3331054105510528F4B90195
:1026E000232B242B252B11F46CE370E0072E000C18
:1026F000880B990B0E94F81C9B01AC0162E070E012
:102700008091B4029091B5020E94520A8EE792E045
:102710000E94190CBC0180E090E029E330E040E029
:1027200050E00E94A01B2D3331054105510528F4CE
:10273000B901232B242B252B11F46CE370E0072E19
:10274000000C880B990B0E94F81C9B01AC0163E004
:1027500070E08091B4029091B5020E94520A80917B
:10276000B4029091B5029CA38BA3DC0112962D902C
:102770003C901397910121153105E1F0F901A081F9
:10278000B18116960D90BC91A02D109769F08D9196
:102790009C911197FC01108A118A128A138A129651
:1027A0000D90BC91A02DF1CFD90112962D913C91A5
:1027B0001397E1CFEBA1FCA10680F781E02DF8A7EC
:1027C000EFA39F0121153105A1F1F901A081B1818C
:1027D00016960D90BC91A02D109769F08D919C914B
:1027E0001197FC01108A118A128A138A12960D9091
:1027F000BC91A02DF1CFD90112962D913C91139748
:10280000E1CFAB8DBC8D0D911C910115110501F52A
:10281000AB8DBC8D12960D90BC91A02DBC8FAB8F53
:10282000EB8DFC8DEF2B69F7D10112962D903C902A
:1028300013972114310409F41AC1F1010190F081B8
:10284000E02DFEA3EDA3268137813C8F2B8FE8CFAF
:10285000EDA1FEA1C280D380E480F580D8012D9146
:102860003D914D915C912F8B388F498F5A8FC701C5
:10287000B6010E94491CF80144805580668077802B
:1028800087FF22C0A30192016F89788D898D9A8D6F
:102890000E94491C8111E5C0D8011896CD90DD90A9
:1028A000ED90FC901B97A7019601C301B2010E9415
:1028B000491C882309F4D5C0F8012485358546854F
:1028C0005785C701B601BDC02F89388D498D5A8DF6
:1028D000C701B6010E94A81D87FD34C0A301920163
:1028E000C701B6010E94491C87FF2CC02F89388D73
:1028F000498D5A8DC301B2010E94DC1B9B01AC01C2
:1029000060E070E080E89FE30E944E1C4B015C0198
:10291000A3019201C701B6010E94DC1B9B01AC011F
:10292000C501B4010E94AD1D20E030E040E85FE346
:102930000E94DD1BD80150966D937D938D939C93DF
:10294000539766CFA3019201C701B6010E94A81D4B
:1029500087FD0CC0F8012085318542855385C7016C
:10296000B6010E94491C18160CF06FC0F801808453
:102970009184A284B384A5019401C701B6010E9489
:10298000A81DD8011C962D913D914D915C911F97EA
:102990002F8F38A349A35AA3181684F5C701B6018F
:1029A0000E94491C181654F12F8D38A149A15AA133
:1029B000C501B4010E94DC1B9B01AC0160E070E02A
:1029C00080E89FE30E944E1C2B013C01A50194016D
:1029D000C701B6010E94DC1B9B01AC01C301B2011F
:1029E0000E94AD1D20E030E040E85FE30E94DD1B67
:1029F000F801608B718B828B938B0ACF2F8D38A15E
:102A000049A15AA1C701B6010E94A81D18160CF0D1
:102A1000FFCE2F8D38A149A15AA1C501B4010E9452
:102A2000491C81111EC0A3019201C501B4010E947D
:102A3000491C8823B1F02F89388D498D5A8DC301E7
:102A4000B2010E94491C882361F020E030E040E898
:102A50005FE3D80150962D933D934D935C9353972C
:102A6000D7CEF801108A118A128A138AD1CEEBA12F
:102A7000FCA102851385772473940115110509F4CF
:102A800042C0D801ED90FC90F701838194810097BA
:102A9000B1F10E942F054B015C0120E030E0A9015B
:102AA0000E94A81D181624F4D70112967C9202C029
:102AB000F7011282D7011596ED91FC911697E280ED
:102AC000F380E114F104D9F0F701C080D180A501B1
:102AD0009401D60150966D917D918D919C91539763
:102AE0000E94491C87FF05C0F601808A918AA28A4C
:102AF000B38AD7011296ED90FC901397E2CFF801BC
:102B000002811381BACF9E012B5F3F4F3A8B298BF5
:102B1000EFA1F8A5EF2B09F408C4AFA1B8A50D905B
:102B2000BC91A02DB88FAF8B1D01BAE02B0E311CCC
:102B3000EF89F88D64857585C1010E942008AF89F1
:102B4000B88D1D961C921E921C971B961C921E926D
:102B50001A9716966D907C9017976114710409F47A
:102B6000AAC1F3010081118120E030E0A901D80160
:102B700050966D917D918D919C9153970E94A81DC7
:102B800018160CF094C1F801C080D180E280F38067
:102B90002481358146815781C701B6010E94491CB5
:102BA000882391F000E010E09801B701A601C1016F
:102BB0000E943208811108C000E010E09801B701BE
:102BC000A601C1010E946F08D3010D911C91F8016B
:102BD000C480D580E680F780208531854285538585
:102BE000C701B6010E94491C811129C0D801BC91BE
:102BF000BB8FF801F181FF8FD80112965C9012977C
:102C000013964C9013971C96BC91BBA3F801B58406
:102C1000A68497842B2F3B2D4A2D592DBB8DAF8D2C
:102C2000F2016B2F7A2F8F2F9E2F0E94491C81114A
:102C300017C4F80180889188A288B388FFC0F80182
:102C400080889188A288B38820E030E040E85FE384
:102C5000682D792D8A2D9B2D0E94491C811120C041
:102C600000E010E020E83FE3B701A601C1010E94A7
:102C70003208811109C000E010E020E83FE3B7010D
:102C8000A601C1010E946F08D301ED91FC918088DB
:102C90009188A288B388C084D184E284F384CEC0B2
:102CA000CD86DE86EF86F88A9401F501C901DF0141
:102CB00089879A87AB87BC87D8017C9111966C91E4
:102CC000119712965C91129713964C91BC89BF9301
:102CD0008B898F939E899F93AD89AF93FF93EF93D9
:102CE0003F932F93D8011F968C911F978F931E9619
:102CF0008C911E978F931D968C911D978F931C9688
:102D00008C918F93FF93EF933F932F934F935F9308
:102D10006F937F93812C912C80E8A82E8FE3B82E9F
:102D200000E010E09801FB01CA014F2F5E2F692FD0
:102D3000782F8F89988D0E94900689849A84AB841D
:102D4000BC84CD84DE84EF84F88895018401B701CA
:102D5000A601C1010E9432080FB6F894DEBF0FBE73
:102D6000CDBF811107C095018401B701A601C10142
:102D70000E946F08D301ED91FC9184819581A68119
:102D8000B7818D839E83AF83B887508941899289AB
:102D90008389252F342F8C01C901A12FB02F89835E
:102DA0009A83AB83BC83E484F584B685A78540858C
:102DB00051856285738581E090E08C0F9D1F9F9304
:102DC0008F939A899F9389898F930F931F933F9332
:102DD0002F93AF93BF93FF92EF920F931F933F9365
:102DE0002F9383818F9382818F9381818F938081B1
:102DF0008F93812C912C5401CD01CE2CDF2CE92E08
:102E0000F82E00E010E020E83FE38F89988D0E94C3
:102E1000900689809A80AB80BC80CD80DE80EF8078
:102E2000F88495018401B701A601C1010E9432080E
:102E30000FB6F894DEBF0FBECDBF07C09501840169
:102E4000B701A601C1010E943208811107C0950196
:102E50008401B701A601C1010E946F08D301ED9062
:102E6000FC90F70184849584A684B784A50194011D
:102E700060857185828593850E94491C8823B9F0FD
:102E800000E010E09801B501A401C1010E943208E0
:102E9000882309F445C3D7012D913D914D915C9153
:102EA000C501B4010E94491C882309F439C3F30108
:102EB0006280738052CEAF89B88D1C960D90BC9104
:102EC000A02DBCA3ABA32BA13CA1232B09F424C2AE
:102ED0000BA11CA1F801E080F180E114F10481F064
:102EE000F7012281338144815581D80112966D9179
:102EF0007D918D919C9115970E94491C87FF06C07A
:102F0000180123961FAF0EAF239713C08701E2CF9E
:102F10002081318138A32F8F232BA1F42396EEAD8E
:102F2000FFAD23970190F081E02D2396FFAFEEAF28
:102F300023972396AEADBFAD2397ED91FC913097CB
:102F400039F7E2C1D8011A960D90BC91A02DBEA30D
:102F5000ADA3D80112962D913D914D915C9115979D
:102F600021962CAF3DAF4EAF5FAF219716962D91B6
:102F70003D914D915C91199729AF3AAF4BAF5CAF42
:102F800022813381448155812DAB3EAB4FAB58AF8D
:102F900086819781A085B18589AB9AABABABBCAB81
:102FA0009C01AD01AF8DB8A116966D917D918D916B
:102FB0009C9119970E94DC1B27966CAF7DAF8EAF5A
:102FC0009FAF279721962CAD3DAD4EAD5FAD2197BC
:102FD000EDA1FEA162817381848195810E94DC1B39
:102FE0006DA77EA78FA798AB2DA93EA94FA958AD75
:102FF000AF8DB8A112966D917D918D919C91159791
:103000000E94DC1B2B013C0129AD3AAD4BAD5CAD00
:10301000EDA1FEA166817781808591850E94DC1BF0
:1030200069A77AA78BA79CA72DA53EA54FA558A950
:1030300027966CAD7DAD8EAD9FAD27970E94AD1DDF
:103040006B017C0129A53AA54BA55CA5C301B20182
:103050000E94AD1D9B01AC01C701B6010E94DC1BA3
:103060006B8F7C8F8D8F9E8F29A93AA94BA95CA964
:1030700069AD7AAD8BAD9CAD0E94DC1B4B015C0150
:103080002DA93EA94FA958AD21966CAD7DAD8EAD51
:103090009FAD21970E94DC1B6B017C01A50194016F
:1030A000C301B2010E94AD1D2B013C01A701960195
:1030B00027966CAD7DAD8EAD9FAD27970E94AD1D5F
:1030C0009B01AC01C301B2010E94DC1B2B013C013E
:1030D000A50194016DA57EA58FA598A90E94AD1D9F
:1030E0004B015C01A701960169A57AA58BA59CA55A
:1030F0000E94AD1D9B01AC01C501B4010E94DC1B07
:103100006B017C0120E030E0A9016B8D7C8D8D8D01
:103110009E8D0E94491C87FF09C02B8D3C8D4D8DD3
:103120005E8D50582B8F3C8F4D8F5E8F20E030E0AE
:10313000A901C301B2010E94491C87FF04C077FAAC
:10314000709477F8709420E030E0A901C701B601CF
:103150000E94491C87FF04C0F7FAF094F7F8F09436
:103160002FE632E143E85AE36B8D7C8D8D8D9E8D89
:103170000E94491C87FDD2CE2B8D3C8D4D8D5E8DDE
:10318000C301B2010E944E1C4B015C0120E030E003
:10319000A9010E94491C87FDC1CE20E030E040E833
:1031A0005FE3C501B4010E94A81D18160CF4B6CE49
:1031B0002B8D3C8D4D8D5E8DC701B6010E944E1C3E
:1031C0006B017C0120E030E0A9010E94491C87FDD1
:1031D000A5CE20E030E040E85FE3C701B6010E94E1
:1031E000A81D18160CF49ACE8CE090E00E941A1ECE
:1031F0007C01009709F492CEEF8DF8A1DC01ED93EC
:10320000FC932DA53EA54FA558A9C501B4010E9468
:10321000AD1D9B01AC0121966CAD7DAD8EAD9FAD1A
:1032200021970E94DD1BD70112966D937D938D939C
:103230009C93159729A53AA54BA55CA5C501B4019A
:103240000E94AD1D9B01AC0169AD7AAD8BAD9CAD0B
:103250000E94DD1BF70166837783808791872DA10C
:103260003EA133872287AF8DB8A11B96FC92EE92C8
:103270001A97F901F182E082D10112962D913D91C8
:103280004D915C9115971696CD90DD90ED90FC9048
:1032900019970C9111961C91C1012A962FAF2A976C
:1032A0002B963FAF2B9728964FAF289729965FAF65
:1032B00029970E94AF1E2A962FAD2A972B963FADD5
:1032C0002B9728964FAD289729965FAD29976DA922
:1032D0007EA98FA998AD0E94491C81110AC0A7013F
:1032E000960169A97AA98BA99CA90E94491C8823E7
:1032F00021F01801012B09F0BFCFEF89F88D04846C
:10330000F585E02DFCA3EBA3EBA1FCA10284F385E2
:10331000E02DFCA3EBA3D7CDAFA1B8A512960D90DD
:10332000BC91A02DB8A7AFA3F3CB0091B40210912C
:10333000B50261E070E0C8010E94C8080E94C01C8C
:103340002B013C0162E070E0C8010E94C8080E94A5
:10335000C01C6B017C0163E070E0C8010E94C808DA
:103360000E94C01C4B015C018B0185E691E00E942C
:103370000B0CC2010E94890BC4010E94890B05300D
:1033800011054CF18DE691E00E940B0CC6010E94E4
:10339000890B60E08AE00E94840261E08BE00E9479
:1033A000840261E086E00E94840260E087E00E947F
:1033B00084026DE770E089E00E940C036DE770E025
:1033C00085E00E940C03C114D10499F1B601DD0C13
:1033D000880B990B2CC0181419046CF48BE791E03E
:1033E0000E940B0CC6010E94890B6DE770E0C601BC
:1033F0000E944B0B20C060E08AE00E94840261E0E2
:103400008BE00E94840260E086E00E94840261E01A
:1034100087E00E948402B20189E00E940C03B2019D
:1034200085E00E940C0362E370E080E090E00E947F
:1034300090030E943B0B68EE73E080E090E00E94F6
:10344000900380918C0190918D01892B31F481E062
:1034500090E090938D0180938C010E947A018FC837
:10346000D80150968C9050975196BC91BDA3F8010D
:10347000F289F9A7D80153961C9120E030E040E88A
:103480005FE3ADA1682D7A2F8F2F912F0E94491CE9
:10349000811110C000E010E020E83FE3B701A60171
:1034A000C1010E9432088111D9CC00E010E020E86F
:1034B0003FE3CFCCCD86DE86EF86F88A282D3DA16E
:1034C00049A5512FC901DA0189879A87AB87BC8743
:1034D000FC89FF938B898F939E899F93AD89AF93CE
:1034E0001F934F933F938F929F92AF92BF92BBA136
:1034F000BF931F934F933F938F924F925F92EF8DA5
:10350000EF93FB8DFF93812C912C90E8A92E9FE3E4
:10351000B92E00E010E09801FB8DEF8DC20105CCC3
:1035200000E010E09801B501A401C1010E946F08FC
:10353000BECC8AE191E09093B7028093B60280916D
:10354000D6019091D701865B924071F4E091C90257
:10355000F091CA0290818091CB028095892380836B
:103560001092D7011092D60108951092E4011092A2
:10357000E30188EE93E0A0E0B0E08093E501909352
:10358000E601A093E701B093E8012AE031E030932F
:10359000E2012093E10125EC30E03093EE0120932D
:1035A000ED0124EC30E03093F0012093EF0120ECAA
:1035B00030E03093F2012093F10121EC30E03093C0
:1035C000F4012093F30122EC30E03093F6012093D4
:1035D000F50126EC30E03093F8012093F7011092CA
:1035E000FA011092FB011092FC011092FD01109261
:1035F000B9021092B8028093BA029093BB02A093D2
:10360000BC02B093BD028AE191E09093B70280932F
:10361000B6021092CD021092CC021092CF021092FC
:10362000CE021092D1021092D0021092D3021092C8
:10363000D2026091D4026E7F6D7F6093D402669552
:10364000617081E0682780E00E94840261E080E090
:103650000E94D002EEEAF0E0E491E093C602EAE9CB
:10366000F0E0E491F0E0EE0FFF1FEA57FF4F859185
:1036700094919093C8028093C70260E081E00E9419
:10368000D0028091D40281FD04C061E081E00E94FB
:10369000840281E08093C202EFEAF0E0E491E093DB
:1036A000C302EBE9F0E0E491F0E0EE0FFF1FE0571A
:1036B000FF4F859194919093C5028093C4028CE052
:1036C00090E00E941A1EFC01138212821182108265
:1036D000178216821582148213861286118610862E
:1036E0009093B5028093B40224E630E042E063E0B8
:1036F00082EA92E00E94B50424E630E044E068E00B
:1037000080E992E00E94B50424E630E04CE06DE0F0
:103710008EE792E00C94B50497FB072E16F4009404
:1037200007D077FD09D00E94C21B07FC05D03EF4EC
:10373000909581959F4F0895709561957F4F08955D
:10374000A1E21A2EAA1BBB1BFD010DC0AA1FBB1FA5
:10375000EE1FFF1FA217B307E407F50720F0A21B17
:10376000B30BE40BF50B661F771F881F991F1A9484
:1037700069F760957095809590959B01AC01BD01AE
:10378000CF010895AA1BBB1B51E107C0AA1FBB1F95
:10379000A617B70710F0A61BB70B881F991F5A95DD
:1037A000A9F780959095BC01CD010895EE0FFF1FFC
:1037B0000590F491E02D09945058BB27AA270E9448
:1037C000F41B0C946E1D0E94601D38F00E94671D52
:1037D00020F039F49F3F19F426F40C945D1D0EF48B
:1037E000E095E7FB0C94571DE92F0E947F1D58F3CD
:1037F000BA17620773078407950720F079F4A6F5D6
:103800000C94A11D0EF4E0950B2EBA2FA02D0B01E8
:10381000B90190010C01CA01A0011124FF27591B15
:1038200099F0593F50F4503E68F11A16F040A22F1B
:10383000232F342F4427585FF3CF4695379527958C
:10384000A795F0405395C9F77EF41F16BA0B620B8B
:10385000730B840BBAF09150A1F0FF0FBB1F661FD2
:10386000771F881FC2F70EC0BA0F621F731F841F15
:1038700048F4879577956795B795F7959E3F08F03B
:10388000B0CF9395880F08F09927EE0F97958795FD
:1038900008950E94331D08F481E008950E94621C7F
:1038A0000C946E1D0E94671D58F00E94601D40F030
:1038B00029F45F3F29F00C94571D51110C94A21D5F
:1038C0000C945D1D0E947F1D68F39923B1F355236D
:1038D00091F3951B550BBB27AA2762177307840723
:1038E00038F09F5F5F4F220F331F441FAA1FA9F3B9
:1038F00035D00E2E3AF0E0E832D091505040E695A7
:10390000001CCAF72BD0FE2F29D0660F771F881F07
:10391000BB1F261737074807AB07B0E809F0BB0BFA
:10392000802DBF01FF2793585F4F3AF09E3F51050E
:1039300078F00C94571D0C94A21D5F3FE4F3983E61
:10394000D4F3869577956795B795F7959F5FC9F7F7
:10395000880F911D9695879597F90895E1E0660F78
:10396000771F881FBB1F621773078407BA0720F0F1
:10397000621B730B840BBA0BEE1F88F7E09508955A
:103980000E94C71C6894B1110C94A21D08950E9456
:10399000871D88F09F5798F0B92F9927B751B0F03D
:1039A000E1F0660F771F881F991F1AF0BA95C9F7C3
:1039B00014C0B13091F00E94A11DB1E008950C94A3
:1039C000A11D672F782F8827B85F39F0B93FCCF356
:1039D000869577956795B395D9F73EF49095809540
:1039E000709561957F4F8F4F9F4F0895E89409C060
:1039F00097FB3EF490958095709561957F4F8F4F22
:103A00009F4F9923A9F0F92F96E9BB279395F69537
:103A1000879577956795B795F111F8CFFAF4BB0FB5
:103A200011F460FF1BC06F5F7F4F8F4F9F4F16C019
:103A3000882311F096E911C0772321F09EE8872FA3
:103A4000762F05C0662371F096E8862F70E060E05F
:103A50002AF09A95660F771F881FDAF7880F9695D8
:103A6000879597F90895990F0008550FAA0BE0E87C
:103A7000FEEF16161706E807F907C0F01216130630
:103A8000E407F50798F0621B730B840B950B39F470
:103A90000A2661F0232B242B252B21F408950A26D6
:103AA00009F4A140A6958FEF811D811D089597F916
:103AB0009F6780E870E060E008959FEF80EC0895D4
:103AC00000240A94161617061806090608950024FD
:103AD0000A9412161306140605060895092E039477
:103AE000000C11F4882352F0BB0F40F4BF2B11F4EB
:103AF00060FF04C06F5F7F4F8F4F9F4F089557FD4A
:103B00009058440F551F59F05F3F71F04795880F4B
:103B100097FB991F61F09F3F79F0879508951216E2
:103B200013061406551FF2CF4695F1DF08C016168E
:103B300017061806991FF1CF86957105610508943F
:103B40000895E894BB2766277727CB0197F9089556
:103B50000E94331D08F48FEF08950E94C01D0C943D
:103B60006E1D0E94601D38F00E94671D20F0952395
:103B700011F00C94571D0C945D1D11240C94A21D82
:103B80000E947F1D70F3959FC1F3950F50E0551F64
:103B9000629FF001729FBB27F00DB11D639FAA27A2
:103BA000F00DB11DAA1F649F6627B00DA11D661FF1
:103BB000829F2227B00DA11D621F739FB00DA11D12
:103BC000621F839FA00D611D221F749F3327A00DCC
:103BD000611D231F849F600D211D822F762F6A2F68
:103BE00011249F5750409AF0F1F088234AF0EE0FCD
:103BF000FF1FBB1F661F771F881F91505040A9F7FA
:103C00009E3F510580F00C94571D0C94A21D5F3F00
:103C1000E4F3983ED4F3869577956795B795F79535
:103C2000E7959F5FC1F7FE2B880F911D96958795AD
:103C300097F90895CF93DF938230910510F482E0D5
:103C400090E0E091D702F091D80220E030E0C0E0AF
:103C5000D0E0309711F14081518148175907C0F0E9
:103C60004817590761F482819381209719F09B834B
:103C70008A832BC09093D8028093D70226C0211547
:103C8000310519F04217530718F49A01BE01DF01FC
:103C9000EF010280F381E02DDCCF2115310509F120
:103CA000281B390B2430310590F412968D919C918C
:103CB00013976115710521F0FB019383828304C082
:103CC0009093D8028093D702FD01329644C0FD0143
:103CD000E20FF31F81939193225031092D933C936E
:103CE0003AC02091D5023091D602232B41F4209185
:103CF0000201309103013093D6022093D502209126
:103D00000001309101012115310541F42DB73EB775
:103D10004091040150910501241B350BE091D5021F
:103D2000F091D602E217F307A0F42E1B3F0B2817E1
:103D3000390778F0AC014E5F5F4F2417350748F024
:103D40004E0F5F1F5093D6024093D50281939193FB
:103D500002C0E0E0F0E0CF01DF91CF9108950F9332
:103D60001F93CF93DF93009709F48CC0FC01329727
:103D7000138212820091D7021091D8020115110509
:103D800081F420813181820F931F2091D5023091DF
:103D9000D6022817390779F5F093D602E093D502B9
:103DA00071C0D80140E050E0AE17BF0750F4129642
:103DB0002D913C911397AD012115310509F1D901E0
:103DC000F3CF9D01DA013383228360817181860FF5
:103DD000971F8217930769F4EC0128813981260F18
:103DE000371F2E5F3F4F318320838A819B819383CE
:103DF0008283452B29F4F093D802E093D70242C086
:103E00001396FC93EE931297ED01499159919E01FF
:103E1000240F351FE217F30771F480819181840F1D
:103E2000951F029611969C938E938281938113968F
:103E30009C938E931297E0E0F0E0D80112968D915A
:103E40009C911397009719F0F8018C01F6CF8D9192
:103E50009C9198012E5F3F4F820F931F2091D502B6
:103E60003091D6022817390769F4309729F4109257
:103E7000D8021092D70202C0138212821093D60287
:103E80000093D502DF91CF911F910F91089581E0AA
:103E900090E0F8940C944C1F10E0C2E6D0E004C00F
:103EA000FE010E94D61B2196C336D107C9F7F894AC
:023EB000FFCF42
:103EB2000000D90280000000000011018D00DA002C
:103EC200B800CC005801000000009D018D00F101F6
:103ED200090284019C010D000C000800040003008B
:103EE20002005475726E546573742077796E6F7325
:103EF200693A0057796B6F6E616C656D206F627203
:103F02006F7421006F727967696E616C6E792070CF
:103F120072696E74004F75747075743300507261FB
:103F2200776F206F206D6F63793A004C65776F2051
:0C3F32006F206D6F63793A000D0A0000EB
:107E0000112484B714BE81FFF0D085E080938100F7
:107E100082E08093C00088E18093C10086E0809377
:107E2000C20080E18093C4008EE0C9D0259A86E02C
:107E300020E33CEF91E0309385002093840096BBD3
:107E4000B09BFECF1D9AA8958150A9F7CC24DD24C4
:107E500088248394B5E0AB2EA1E19A2EF3E0BF2EE7
:107E6000A2D0813461F49FD0082FAFD0023811F036
:107E7000013811F484E001C083E08DD089C08234E0
:107E800011F484E103C0853419F485E0A6D080C0E4
:107E9000853579F488D0E82EFF2485D0082F10E0AE
:107EA000102F00270E291F29000F111F8ED06801E7
:107EB0006FC0863521F484E090D080E0DECF843638
:107EC00009F040C070D06FD0082F6DD080E0C81688
:107ED00080E7D80618F4F601B7BEE895C0E0D1E017
:107EE00062D089930C17E1F7F0E0CF16F0E7DF06D8
:107EF00018F0F601B7BEE89568D007B600FCFDCFD4
:107F0000A601A0E0B1E02C9130E011968C91119780
:107F100090E0982F8827822B932B1296FA010C0160
:107F200087BEE89511244E5F5F4FF1E0A038BF0790
:107F300051F7F601A7BEE89507B600FCFDCF97BE46
:107F4000E89526C08437B1F42ED02DD0F82E2BD052
:107F50003CD0F601EF2C8F010F5F1F4F84911BD097
:107F6000EA94F801C1F70894C11CD11CFA94CF0C13
:107F7000D11C0EC0853739F428D08EE10CD085E9AC
:107F80000AD08FE07ACF813511F488E018D01DD067
:107F900080E101D065CF982F8091C00085FFFCCF94
:107FA0009093C60008958091C00087FFFCCF809118
:107FB000C00084FD01C0A8958091C6000895E0E648
:107FC000F0E098E1908380830895EDDF803219F02E
:107FD00088E0F5DFFFCF84E1DECF1F93182FE3DFCA
:107FE0001150E9F7F2DF1F91089580E0E8DFEE27F6
:047FF000FF270994CA
:027FFE00040479
:0400000300007E007B
:00000001FF
