:100000000C9463000C948B000C948B000C941404DF
:100010000C9414040C9414040C948B000C948E0413
:100020000C948B000C948B000C948B000C948B0024
:100030000C948B000C948B000C948B000C948B0014
:100040000C94CA030C948B000C9452020C942C0256
:100050000C948B000C948B000C948B000C948B00F4
:100060000C948B000C948B000000000024002700EF
:100070002A0000000008000201000003040700003D
:1000800000000000000000000000250028002B00F8
:1000900000000000230026002900040404040404D6
:1000A0000404020202020202030303030303010227
:1000B00004081020408001020408102001020408F6
:1000C0001020971C7B1C11241FBECFEFD8E0DEBF91
:1000D000CDBF11E0A0E0B1E0E6E7F2E402C0059098
:1000E0000D92AC38B107D9F722E0ACE8B1E001C01D
:1000F0001D92AB3DB207E1F710E0C2E6D0E004C0CC
:100100002197FE010E94B81DC136D107C9F70E9490
:10011000590D0C942E210C940000CF92DF92EF9297
:10012000FF920F931F93CF93DF936C017A018B01A2
:10013000C0E0D0E0CE15DF0589F0D8016D918D01CA
:10014000D601ED91FC910190F081E02DC601099559
:10015000892B11F47E0102C02196ECCFC701DF91FB
:10016000CF911F910F91FF90EF90DF90CF90089566
:10017000FC01918D828D981761F0828DDF01A80FAF
:10018000B11D5D968C91928D9F5F9F73928F90E0D1
:1001900008958FEF9FEF0895FC01918D828D981740
:1001A00031F0828DE80FF11D858D90E008958FEF7D
:1001B0009FEF0895FC01918D228D892F90E0805C46
:1001C0009F4F821B91098F739927089583EE91E0C9
:1001D0000E94DA0021E0892B09F420E0822F0895A3
:1001E000FC01848DDF01A80FB11DA35ABF4F2C91D4
:1001F000848D90E001968F739927848FA689B789A3
:100200002C93A089B1898C9180648C93938D848D7B
:10021000981306C00288F389E02D80818F7D80834A
:100220000895EF92FF920F931F93CF93DF93EC010A
:1002300081E0888F9B8D8C8D981305C0E889F989A2
:10024000808185FD24C0F62E0B8D10E00F5F1F4FBF
:100250000F731127E02E8C8DE8120CC00FB607FC2F
:10026000FACFE889F989808185FFF5CFCE010E9418
:10027000F000F1CF8B8DFE01E80FF11DE35AFF4F27
:10028000F0820B8FEA89FB898081806207C0EE894A
:10029000FF896083E889F98980818064808381E0B7
:1002A00090E0DF91CF911F910F91FF90EF90089513
:1002B000CF93DF93EC01888D8823C9F0EA89FB890D
:1002C000808185FD05C0A889B9898C9186FD0FC004
:1002D0000FB607FCF5CF808185FFF2CFA889B989D9
:1002E0008C9185FFEDCFCE010E94F000E7CFDF912A
:1002F000CF91089580E090E0892B29F00E94E600DC
:1003000081110C94000008952091D8013091D901F9
:100310002817390771F49091D7018091D601981769
:1003200041F0E091D701F0E0EA56FE4F808190E085
:1003300008958FEF9FEF089508951F93CF93DF9354
:10034000DC015C962D913C915D972115310539F4C6
:1003500081E090E013969C938E9312973DC0519646
:10036000ED91FC91529750969C915097892F8095D2
:100370001FB75E964C915E9741FB772770F941FD60
:100380006095F8944081772311F0492B01C04823F0
:100390004083E9012197F1F748E0508160FF02C0F6
:1003A000592B01C058235083E9012197F1F7669535
:1003B000415099F7772321F090818923808303C0EE
:1003C0008081982B90831FBF5C968D919C915D9747
:1003D0000197F1F721E030E0C901DF91CF911F9142
:1003E00008952091D8013091D9012817390771F467
:1003F0008091D6012091D70190E0805C9F4F821BB5
:10040000910960E470E00E946E1D089580E090E024
:1004100008952091D8013091D90128173907B9F4EE
:100420009091D7018091D601981789F0E091D7017A
:10043000F0E0EA56FE4F80812091D70130E02F5F37
:100440003F4F2F7333272093D70190E008958FEF0C
:100450009FEF08950E9429211F920F920FB60F92CD
:1004600011242F933F934F935F936F937F938F93B9
:100470009F93AF93BF93EF93FF9383EE91E00E941E
:10048000F000FF91EF91BF91AF919F918F917F917C
:100490006F915F914F913F912F910F900FBE0F90F1
:1004A0001F9018951F920F920FB60F9211242F9341
:1004B0008F939F93EF93FF93E091F301F091F401F9
:1004C0008081E091F901F091FA0182FD12C09081E2
:1004D0008091FC018F5F8F732091FD01821751F095
:1004E000E091FC01F0E0ED51FE4F958F8093FC010F
:1004F00001C08081FF91EF919F918F912F910F907B
:100500000FBE0F901F90189590E0FC01EE58FF4F22
:100510003491FC01E255FF4F2491FC01E656FF4F58
:10052000E491EE2309F43BC0332339F1333091F0E9
:1005300038F43130A9F0323001F584B58F7D12C026
:10054000373091F03830A1F03430B9F48091800028
:100550008F7D03C0809180008F77809380000DC0D5
:1005600084B58F7784BD09C08091B0008F7703C0B8
:100570008091B0008F7D8093B000F0E0EE0FFF1F00
:10058000EA57FF4FA591B4918FB7F894EC916111A0
:1005900003C020952E2301C02E2B2C938FBF0895CE
:1005A000CF93DF9390E0FC01E255FF4F2491FC01D3
:1005B000E656FF4F8491882361F190E0880F991FE0
:1005C000FC01E859FF4FC591D491FC01EA57FF4F58
:1005D000A591B491611109C09FB7F89488812095C5
:1005E00082238883EC912E230BC0623061F49FB785
:1005F000F8943881822F809583238883EC912E2B69
:100600002C939FBF06C08FB7F894E8812E2B2883C8
:100610008FBFDF91CF9108951F93CF93DF93182F52
:10062000EB0161E00E94D002209711F460E004C069
:10063000CF3FD10539F461E0812FDF91CF911F9138
:100640000C948402E12FF0E0EE58FF4FE491E33088
:10065000F9F048F4E130B9F0E230A1F584B58062F8
:1006600084BDC8BD34C0E730E9F0E83019F1E430AA
:1006700049F580918000806280938000D0938B0048
:10068000C0938A0024C084B5806884BDC7BD1FC0E4
:1006900080918000806880938000D0938900C0930F
:1006A000880015C08091B00080688093B000C0932E
:1006B000B3000DC08091B00080628093B000C09301
:1006C000B40005C0C038D1050CF0B5CFAFCFDF9175
:1006D000CF911F9108953FB7F8948091DF019091D9
:1006E000E001A091E101B091E20126B5A89B05C00F
:1006F0002F3F19F00196A11DB11D3FBFBA2FA92FA1
:10070000982F8827820F911DA11DB11DBC01CD011D
:1007100042E0660F771F881F991F4A95D1F7089509
:100720008F929F92AF92BF92CF92DF92EF92FF9201
:100730006B017C010E946B034B015C01C114D1046D
:10074000E104F104F1F00E946B03DC01CB01881994
:100750009909AA09BB09883E9340A105B10570F328
:1007600021E0C21AD108E108F10888EE880E83E082
:10077000981EA11CB11CC114D104E104F10419F7A5
:10078000DDCFFF90EF90DF90CF90BF90AF909F9024
:100790008F9008951F920F920FB60F9211242F93EE
:1007A0003F938F939F93AF93BF938091DB01909181
:1007B000DC01A091DD01B091DE013091DA0123E08E
:1007C000230F2D3720F40196A11DB11D05C026E889
:1007D000230F0296A11DB11D2093DA018093DB0146
:1007E0009093DC01A093DD01B093DE018091DF01E5
:1007F0009091E001A091E101B091E2010196A11D6B
:10080000B11D8093DF019093E001A093E101B093CB
:10081000E201BF91AF919F918F913F912F910F90E6
:100820000FBE0F901F9018951F920F920FB60F9248
:1008300011242F933F934F935F936F937F938F93E5
:100840009F93AF93BF93EF93FF93E091D801F09103
:10085000D901309709F451C0968DA685B785858555
:1008600091FF04C09C91892329F447C09C9189235E
:1008700009F043C0A389B4899C9185898095892317
:100880008C93868997890197F1F7608D718DA68584
:10089000B785558538E020E0CB010197F1F7822F2D
:1008A00090E095958795282F4C91452309F0206875
:1008B000315091F7868D81FD20958091D60190E091
:1008C00001968F7399273091D701381749F0A0917D
:1008D000D601B0E0AA56BE4F2C938093D60103C038
:1008E000868D8160868F828D938D0197F1F7A38924
:1008F000B4899C918589892B8C93FF91EF91BF914D
:10090000AF919F918F917F916F915F914F913F91A7
:100910002F910F900FBE0F901F9018951F920F925E
:100920000FB60F9211242F933F934F935F936F93C2
:100930007F938F939F93AF93BF93EF93FF93E09138
:100940009401F09195010995FF91EF91BF91AF91BD
:100950009F918F917F916F915F914F913F912F91D7
:100960000F900FBE0F901F901895DC0170E0FB01F7
:10097000E255FF4FE4911496EC93149750E0FA017E
:10098000E255FF4FE4911596EC93159766567F4F0D
:10099000FB018491E82FF0E0EE0FFF1FEA57FF4FB5
:1009A0008591949117969C938E931697FA01E6562B
:1009B000FF4F449150E0440F551F40575F4FFA01DD
:1009C0008591949119969C938E931897FB0164914D
:1009D000E62FF0E0EE0FFF1FE859FF4F859194914D
:1009E0001B969C938E931A972F5F3F4F49E3429F2C
:1009F000C001439F900D11248E38FFE69F0710F031
:100A00008DE89FE61D969C938E931C9708950F93F7
:100A10001F93CF93DF93EC018B0184E090E00E9461
:100A2000FC1FFC01892BA9F0118300831382128221
:100A30008A819B81892B19F4FB83EA8306C0A881F4
:100A4000B9811396FC93EE931297F983E88381E0C2
:100A500001C080E0DF91CF911F910F9108956F92B7
:100A60007F928F929F92AF92BF92CF92DF92EF923E
:100A7000FF920F931F93CF93DF93EC018A819B81A9
:100A80008230910599F054F4019709F0E3C0EC81AC
:100A9000FD81E088F1880289138931C18330910595
:100AA00009F44EC0049709F491C0D4C0888199819B
:100AB0008130910519F0029719F1CCC0EC81FD81CC
:100AC000E088F1880289138920E030E0A901B701AC
:100AD000C8010E948A1F18160CF0BCC0EE81FF816D
:100AE000C088D188D289C38920E030E0A901B6014D
:100AF0008D2F9C2F0E948A1F18160CF4B0C0AAC01C
:100B0000EC81FD81E088F1880289138920E030E0E2
:100B1000A901B701C8010E948A1F0E80DF81C02D84
:100B200018160CF4A8C020E030E0A9016889798982
:100B30008A899B890E948A1F18160CF49CC08AC05F
:100B4000888199818130910519F0029709F182C05D
:100B5000EC81FD81E088F1880289138920E030E092
:100B6000A901B701C8010E948A1F18160CF072C0B3
:100B7000C884D984C6010E942F054B015C0120E086
:100B800030E0A9010E948A1F18160CF487C062C0C9
:100B9000EC81FD81E088F1880289138920E030E052
:100BA000A901B701C8010E948A1FC884D9841816F8
:100BB0000CF47DC0C6010E942F0520E030E0A901A1
:100BC0000E948A1F18160CF472C044C08881998153
:100BD0008130910519F0029701F13CC07884698455
:100BE000872D962D0E942F056B017C0120E030E0BF
:100BF000A9010E948A1F18166CF50A851B85C80179
:100C00000E942F054B015C0120E030E0A9010E9409
:100C10008A1F18160CF458C01DC0B884A9848B2DE7
:100C20009A2D0E942F056B017C0120E030E0A90184
:100C30000E948A1F0A851B8518160CF450C0C80133
:100C40000E942F0520E030E0A9010E948A1F18169B
:100C50000CF445C0E12CF12C00E010E050C09601EE
:100C60004D2F5C2FB701C8010E942B1E87FD47C086
:100C700076010D2F11C0B888C988DA88CB892B2D51
:100C80003C2D4D2D5C2FB701C8010E948A1F1816FC
:100C9000B4F1EB2CFC2C0D2D1C2F31C0A5019401BF
:100CA000B701C8010E942B1E87FD29C00BC0C601D9
:100CB0000E942F059B01AC01B701C8010E948A1F49
:100CC0001816ECF0E601DACEA5019401C701B601D1
:100CD0000E942B1E87FF11C0C72DD62DCFCEC80175
:100CE0000E942F059B01AC01C701B6010E948A1F1B
:100CF00018161CF4CB2DDA2DC1CEE801BFCEB701FA
:100D0000C801DF91CF911F910F91FF90EF90DF907D
:100D1000CF90BF90AF909F908F907F906F900895ED
:100D2000FC011182108213821282158214821782B2
:100D30001682118610861386128608954F925F924E
:100D40006F927F928F929F92AF92BF92CF92DF92DB
:100D5000EF92FF920F931F93CF93DF93CDB7DEB740
:100D600068970FB6F894DEBF0FBECDBF4D875E8784
:100D70006F87788B098B1A8B2B8B3C8B2FA538A90F
:100D800049A95AA96FA978AD89AD9AAD0E94BE1D37
:100D90006D8B7E8B8F8B988F2D853E854F855889E7
:100DA000C701B6010E94BE1D6D837E838F83988725
:100DB0002BA53CA54DA55EA56BA97CA98DA99EA9D7
:100DC0000E94BE1D6B017C0129893A894B895C898F
:100DD000C501B4010E94BE1D69877A878B879C87F5
:100DE0002D813E814F8158856D897E898F89988DAF
:100DF0000E948F1F4B015C0129853A854B855C85DC
:100E0000C701B6010E948F1F9B01AC01C501B4014F
:100E10000E94BE1D2B013C012FA538A949A95AA942
:100E200069897A898B899C890E94BE1D4B015C016E
:100E30002BA53CA54DA55EA56D857E858F859889E2
:100E40000E94BE1D69837A838B839C83A5019401D4
:100E5000C701B6010E948F1F6B017C0129813A8175
:100E60004B815C816D897E898F89988D0E948F1F4F
:100E70009B01AC01C701B6010E94BE1D6B017C0144
:100E8000A50194016D817E818F8198850E948F1FBD
:100E90004B015C0129813A814B815C8169857A85AE
:100EA0008B859C850E948F1F9B01AC01C501B401FD
:100EB0000E94BE1D4B015C0120E030E0A901C3018E
:100EC000B2010E942B1E87FF04C077FA709477F856
:100ED000709420E030E0A901C701B6010E942B1EEA
:100EE00087FF04C0F7FAF094F7F8F09420E030E0C0
:100EF000A901C501B4010E942B1E87FF04C0B7FAE7
:100F0000B094B7F8B0942FE632E143E85AE3C30156
:100F1000B2010E942B1E87FD61C0A3019201C7018F
:100F2000B6010E94301E6B017C0120E030E0A90177
:100F30000E942B1E87FD52C020E030E040E85FE3B6
:100F4000C701B6010E948A1F18160CF447C0A301FE
:100F50009201C501B4010E94301E4B015C0120E0EA
:100F600030E0A9010E942B1E87FD38C020E030E050
:100F700040E85FE3C501B4010E948A1F181674F1AE
:100F80002D813E814F815885C701B6010E948F1F78
:100F90009B01AC016D857E858F8598890E94BF1D60
:100FA000EBADFCAD608371838283938329853A85A1
:100FB0004B855C85C701B6010E948F1F9B01AC0168
:100FC00069897A898B899C890E94BF1DEDADFEAD30
:100FD000608371838283938381E001C080E068969F
:100FE0000FB6F894DEBF0FBECDBFDF91CF911F913A
:100FF0000F91FF90EF90DF90CF90BF90AF909F90B8
:101000008F907F906F905F904F9008950F931F93F4
:10101000CF93DF93EC018B0184E090E00E94FC1FF2
:10102000FC01892BA9F011830083138212828E8127
:101030009F81892B19F4FF83EE8306C0A885B985AB
:101040001396FC93EE931297F987E88781E001C02D
:1010500080E0DF91CF911F910F910895CF93DF939F
:101060006115710551F0EB016A857B850E942E08A0
:10107000CE01DF91CF910C949120DF91CF91089513
:101080008F929F92AF92BF92CF92DF92EF92FF9298
:101090000F931F93CF93DF936A017B01480159019E
:1010A000FC01C081D1812097C1F0A70196016A811E
:1010B0007B818C819D810E942B1E81110AC0A5011C
:1010C00094016E817F81888599850E942B1E8823DB
:1010D00031F00990D881C02DE6CF80E001C081E0D9
:1010E000DF91CF911F910F91FF90EF90DF90CF9004
:1010F000BF90AF909F908F900895AF92BF92CF9284
:10110000DF92EF92FF920F931F93CF93DF9300D064
:1011100000D0CDB7DEB75C01680179018CE090E0CA
:1011200049835A836B837C830E94FC1FFC014981A5
:101130005A816B817C81892B49F111821082428313
:10114000538364837583C682D782E086F1861386D3
:101150001286D50112968D919C911397892B39F4A3
:101160001396FC93EE931297ED93FC930DC0D5016B
:101170008D919C91119791838083ED93FC93DC0179
:101180001B96FC93EE931A9781E001C080E00F90CC
:101190000F900F900F90DF91CF911F910F91FF90C3
:1011A000EF90DF90CF90BF90AF9008952F923F9235
:1011B0004F925F926F927F928F929F92AF92BF9267
:1011C000CF92DF92EF92FF920F931F93CF93DF9313
:1011D000CDB7DEB72D970FB6F894DEBF0FBECDBFEB
:1011E000DC011696ED91FC911797309709F44CC1EC
:1011F000A081B1818D919C9111978617970709F075
:101200003FC11C960D911C911D97412C512C320110
:1012100049865A866B867C860115110509F41EC124
:10122000F8010284F385E02DFA83E983309709F40D
:1012300012C1D8011296CD90DD90ED90FC901597DB
:1012400082809380A480B580A5019401C701B60176
:101250000E942B1EF80136802780F085FB83D80181
:101260001996BC91BC83811105C0032D122DFD87F9
:10127000BD83D5C020E030E0A901632D722D8B81A4
:101280009C810E942B1E8823A9F0A981BA81169601
:101290008D919D910D90BC91A02D8D839E83AF83E8
:1012A000B88720E030E0A901BC01CD010E942B1ECF
:1012B000811151C020E030E0A901632D722D8B8196
:1012C0009C810E948A1F181664F0E981FA810681C8
:1012D0001781F085FD87A981BA811996BC91BD83DC
:1012E00006C0032D122DEB81ED87FC81FD83A70144
:1012F0009601C501B4010E94BE1D4B015C0198011D
:101300004D855D810E948F1F20E030E040E05FE36B
:101310000E948F1F8B018D879D83A981BA811696AC
:101320002D913D914D915C911997632D722D8B817B
:101330009C810E942B1E87FF05C020E030E040EC1E
:101340005FE304C020E030E040E450E4C501B401B4
:101350000E94301E5CC020E030E0A901632D722D98
:101360008B819C810E948A1F181624F520E030E0B2
:10137000A9016D817E818F8198850E948A1F181630
:10138000CCF42D813E814F815885632D722D8B8148
:101390009C810E942B1EA7019601811113C0C501DB
:1013A000B4010E94BE1D4B015C01232D322D4B81E7
:1013B0005C8120C0C12CD12C760100E010E01D869C
:1013C0001D822DC0C501B4010E94BE1D4B015C01F0
:1013D0002D813E814F815885632D722D8B819C819B
:1013E0000E94BF1D20E030E040E05FE30E948F1FBD
:1013F000A50194010E948F1F8B018D879D8320E0A2
:1014000030E040E05FE3C501B4010E948F1F9B0103
:10141000AC01C701B6010E94BF1D6B017C019801A0
:101420004D855D81C701B6010E948F1F9B01AC01F4
:1014300069857A858B859C850E94BF1D69877A871F
:101440008B879C8798014D855D81C301B2010E9405
:10145000BF1D2B013C0109811A81DECE20E030E066
:10146000A901C301B2010E942B1E882369F0A301C8
:10147000920169857A858B859C850E94301E07C004
:101480000280F381E02DB1CE60E070E0CB012D96BB
:101490000FB6F894DEBF0FBECDBFDF91CF911F9185
:1014A0000F91FF90EF90DF90CF90BF90AF909F9003
:1014B0008F907F906F905F904F903F902F90089506
:1014C000DC011A96ED91FC911B97309779F0A08181
:1014D000B1818D919C9111978617970719F41296F7
:1014E0008C9108950280F381E02DEFCF80E0089584
:1014F000DC011296ED91FC9113973097A1F0A08139
:10150000B1818D919C9111978617970741F412969E
:101510002D933D934D935C93159781E00895028040
:10152000F381E02DEACF80E008950F931F93CF93CE
:10153000DF93EC018B0184E090E00E94FC1FFC0132
:10154000892BA9F011830083138212828A859B85DF
:10155000892B19F4FB87EA8706C0A885B9851396FD
:10156000FC93EE931297F987E88781E001C080E051
:10157000DF91CF911F910F9108954F925F926F92DB
:101580007F928F929F92AF92BF92CF92DF92EF9213
:10159000FF920F931F93CF93DF933C018B0184E065
:1015A00090E00E94FC1FEC01892B09F450C01983C4
:1015B00008831B821A82D80116964C9016971796AC
:1015C0005C907201E114F10449F1820101151105E9
:1015D00009F1F801C280D380C114D104C9F0A08000
:1015E000B180D6018D909C90F4012081318142819F
:1015F0005381D5016D917D918D919C910E948A1F9F
:10160000181634F4F80191828082D601AD92BC9212
:101610008601DCCFF701E280F380D4CFD3011696A8
:101620008D919C911797892B29F41796DC93CE9373
:10163000169707C0D3011496ED91FC911597D383AB
:10164000C2831596DC93CE93149781E001C080E0AD
:10165000DF91CF911F910F91FF90EF90DF90CF908E
:10166000BF90AF909F908F907F906F905F904F90C2
:1016700008950F931F93CF93DF93EC018B0184E0C8
:1016800090E00E94FC1FFC01892BA9F011830083CC
:10169000138212828A819B81892B19F4FB83EA834E
:1016A00006C0A881B9811396FC93EE931297F98333
:1016B000E88381E001C080E0DF91CF911F910F911D
:1016C000089560E08AE00E94840260E08BE00E945E
:1016D000840260E086E00E94840260E087E00C946F
:1016E00084020F931F93CF93DF93EC018B0160E093
:1016F0008AE00E94840261E08BE00E94840260E044
:1017000086E00E94840261E087E00E948402B801C2
:1017100089E00E940C03B80185E00E940C03209729
:1017200061F0BE01DD0F880B990B0E949003DF91E1
:10173000CF911F910F910C94610BDF91CF911F916D
:101740000F910895009769F0FC0101900020E9F7DE
:101750003197AF01481B590BBC0183EE91E00C940B
:101760008D0080E090E0089561E08AE00E948402AC
:1017700060E08BE00E94840261E086E00E948402C7
:1017800060E087E00E9484026DE770E089E00E94DB
:101790000C036DE770E085E00E940C0361EE70E0E1
:1017A00080E090E00E9490030C94610BCF93DF9354
:1017B000EC0160E08AE00E94840261E08BE00E941C
:1017C000840261E086E00E94840260E087E00E947B
:1017D00084026DE770E089E00E940C036DE770E021
:1017E00085E00E940C03209751F0BE01DD0F880BAD
:1017F000990B0E949003DF91CF910C94610BDF91C4
:10180000CF910895CF93DF93EC0161E08AE00E94CD
:10181000840260E08BE00E94840260E086E00E9427
:10182000840261E087E00E9484026DE770E089E055
:101830000E940C036DE770E085E00E940C03209786
:1018400051F0BE01DD0F880B990B0E949003DF91D0
:10185000CF910C94610BDF91CF9108958F929F925D
:10186000AF92BF92CF92DF92EF92FF920F931F93AE
:10187000CF93DF93CDB7DEB7A1970FB6F894DEBF55
:101880000FBECDBF6C01990FEE08FF08F7FE31C007
:10189000E091E301F091E4010190F081E02D6DE22F
:1018A00083EE91E009958C0122273327A9012C1999
:1018B0003D094E095F0919A2CE0181967C019AE08B
:1018C000892E912CA12CB12CCA01B901A50194013A
:1018D0000E94821D605DF70162937F012115310531
:1018E0004105510589F7CF010E94A20B080F191F6E
:1018F0001EC0A701960119A28E010F5D1F4F8AE03D
:10190000C82ED12CE12CF12CCA01B901A7019601F6
:101910000E94821D605DF80162938F0121153105DF
:101920004105510589F7CF010E94A20B8C0188E87F
:1019300091E00E94A20B800F911FA1960FB6F89420
:10194000DEBF0FBECDBFDF91CF911F910F91FF90F2
:10195000EF90DF90CF90BF90AF909F908F900895C1
:10196000CF93DF930E94A20BEC0188E891E00E94E4
:10197000A20B8C0F9D1FDF91CF9108950F931F93A2
:10198000CF93DF93FC01A285B3859C918481892B41
:101990008C93A681B7819C918481809589238C93B7
:1019A0008BE090E00197F1F7A681B7819C9184814B
:1019B000892B8C9383E290E00197F1F7A681B781A0
:1019C0009C918481809589238C93A285B3859C9179
:1019D0008481809589238C93A085B1859C91858194
:1019E000892309F055C0EF010E946B032C853D85CA
:1019F000890120E030E00855194E2F4F3F4FDC01A0
:101A0000CB01800F911FA21FB31F8E879F87A88BCA
:101A1000B98BE885F98590818D81892361F40E94D5
:101A20006B030E851F852889398906171707280734
:101A3000390778F72DC00E946B032C853D85DC01AA
:101A4000CB01820F931FA11DB11D8E879F87A88B8D
:101A5000B98BE885F98590818D81892361F00E9499
:101A60006B030E851F8528893989061717072807F4
:101A7000390778F70DC00E946B032C853D852550F2
:101A800031094E855F85241B350B620F731F02C021
:101A900060E070E080E090E029E330E040E050E07A
:101AA0000E94821DCA01B901DF91CF911F910F9150
:101AB0000895CF93DF93CDB7DEB7CA54D1090FB6DF
:101AC000F894DEBF0FBECDBF789484B5826084BD2C
:101AD00084B5816084BD85B5826085BD85B5816032
:101AE00085BD80916E00816080936E0010928100B0
:101AF000809181008260809381008091810081606B
:101B0000809381008091800081608093800080912B
:101B1000B10084608093B1008091B00081608093B7
:101B2000B00080917A00846080937A0080917A007E
:101B3000826080937A0080917A00816080937A003D
:101B400080917A00806880937A001092C10061E0F1
:101B500089E00E94D00261E085E00E94D00261E04D
:101B60008AE00E94D00261E08BE00E94D00261E036
:101B700086E00E94D00261E087E00E94D002E091FE
:101B8000F301F091F40182E08083E091EF01F091A4
:101B9000F0011082E091F101F091F2018FEC80836D
:101BA0001092FB01E091F701F091F80186E080834B
:101BB000E091F501F091F601808180618083E091F0
:101BC000F501F091F601808188608083E091F50154
:101BD000F091F601808180688083E091F501F091B9
:101BE000F60180818F7D80838AE090E00E94FC1F57
:101BF0008C01E1E0F0E0DC011196FC93EE93179686
:101C00001C921E92169719961C921E92189784E1A8
:101C100090E00E94FC1F1C01C12CD12C30EFE32E60
:101C200031E4F32EDC01CD92DD92ED92FC9213971C
:101C3000412C512C40E7642E42E4742EFC01448276
:101C400055826682778218964D925D926D927C9253
:101C50001B97448655866686778650961D921D9200
:101C60001D921C925397BC01C8010E94060884E192
:101C700090E00E94FC1F9AA389A3FC0110821182AC
:101C800012821382C482D582E682F782C086D18610
:101C9000E286F3864486558666867786108A118AA0
:101CA000128A138ABC01C8010E94060884E190E0F0
:101CB0000E94FC1FFC011082118212821382148286
:101CC0001582168217821086118612861386C486A4
:101CD000D586E686F786108A118A128A138ABC0195
:101CE000C8010E94060884E190E00E94FC1F9CA3AA
:101CF0008BA3DC011D921D921D921C921397FC0177
:101D0000148215821682178218961D921D921D92BA
:101D10001C921B97812C912C50E7A52E51E4B52ED7
:101D200084869586A686B78650961D921D921D9232
:101D30001C925397BC01C8010E940608B80180910B
:101D4000B6029091B7020E94390B8AE090E00E949F
:101D5000FC1F8C0122E030E0FC01318320831782DC
:101D600016821186108684E190E00E94FC1F988FF5
:101D70008F8BDC01CD92DD92ED92FC921397FC01EA
:101D8000448255826682778218964D925D926D925A
:101D90007C921B97448655866686778650961D9260
:101DA0001D921D921C925397BC01C8010E94060807
:101DB00084E190E00E94FC1F9C8F8B8FFC011082BD
:101DC000118212821382C482D582E682F782C08693
:101DD000D186E286F3864486558666867786108AA3
:101DE000118A128A138ABC01C8010E94060884E184
:101DF00090E00E94FC1FFC0110821182128213826B
:101E00001482158216821782108611861286138616
:101E1000C486D586E686F786108A118A128A138AC6
:101E2000BC01C8010E94060884E190E00E94FC1FEA
:101E30009C01DC011D921D921D921C921397FC01C6
:101E4000148215821682178218961D921D921D9279
:101E50001C921B9784869586A686B78650961D92FF
:101E60001D921D921C925397BC01C8012A962FAF58
:101E70002A972B963FAF2B970E940608B8018091B6
:101E8000B6029091B7020E94390B8AE090E00E945E
:101E9000FC1F8C0143E050E0FC015183408317821A
:101EA00016821186108684E190E028964FAF28971D
:101EB00029965FAF29970E94FC1F9E8F8D8FDC01B2
:101EC000CD92DD92ED92FC921397FC0144825582F3
:101ED0006682778218964D925D926D927C921B97E6
:101EE000448655866686778650961D921D921D9271
:101EF0001C925397BC01C8010E94060884E190E03F
:101F00000E94FC1F9EA38DA3FC01108211821282ED
:101F10001382C482D582E682F782C086D186E286A9
:101F2000F3864486558666867786108A118A128AD9
:101F3000138ABC01C8010E94060884E190E00E9457
:101F4000FC1FFC01108211821282138214821582FE
:101F5000168217821086118612861386C486D5864D
:101F6000E686F786108A118A128A138ABC01C80194
:101F70000E94060884E190E00E94FC1F98A78FA3AE
:101F8000DC011D921D921D921C921397FC0114827C
:101F900015821682178218961D921D921D921C9210
:101FA0001B9784869586A686B78650961D921D92AD
:101FB0001D921C925397BC01C8010E940608B801EB
:101FC0008091B6029091B7020E94390B8EE090E0AA
:101FD0000E94FC1F8C0181E090E0F80191838083D6
:101FE000178216821186108613861286158614862D
:101FF00084E190E00E94FC1FFC0110821182128299
:102000001382812C912C66E1A62E63E4B62E848285
:102010009582A682B78280869186A286B3868486C0
:102020009586A686B786108A118A128A138ABC0101
:10203000C8010E94060884E190E00E94FC1F9AA754
:1020400089A7DC011D921D921D921C921397FC0121
:1020500084829582A682B78218968D929D92AD92C7
:10206000BC921B97C12CD12C7FE7E72E73E4F72E8F
:10207000C486D586E686F78650961D921D921D92DF
:102080001C925397BC01C8010E94060884E190E0AD
:102090000E94FC1F9EA78DA7FC0180829182A282D4
:1020A000B382C482D582E682F782C086D186E28678
:1020B000F386C486D586E686F786108A118A128A48
:1020C000138ABC01C8010E940608B8018091B602BB
:1020D0009091B7020E94BD0A8EE090E00E94FC1F22
:1020E0007C01E2E0F0E0DC011196FC93EE931796A0
:1020F0001C921E92169719961C921E9218971B9668
:102100001C921E921A971D961C921E921C9784E197
:1021100090E00E94FC1F8C01DC018D929D92AD929B
:10212000BC921397FC0184829582A682B78218968E
:102130008D929D92AD92BC921B97412C512C81EEB9
:10214000682E83E4782E4486558666867786509678
:102150001D921D921D921C925397B801C7010E94B7
:10216000060884E190E00E94FC1F9AAB89ABFC0159
:1021700080829182A282B382448255826682778273
:102180004086518662867386812C912C91E6A92E19
:1021900094E4B92E84869586A686B786108A118A1D
:1021A000128A138ABF01C7010E94060884E190E0E9
:1021B0000E94FC1FFC0140825182628273828482F1
:1021C0009582A682B78280869186A286B38684860F
:1021D0009586A686B786108A118A128A138ABC0150
:1021E000C7010E940608B7018091B6029091B7021C
:1021F0000E94BD0A8EE090E00E94FC1F7C012896A0
:102200004FAD289729965FAD2997DC0111965C9315
:102210004E9317961C921E92169719961C921E9218
:1022200018971B961C921E921A971D961C921E922E
:102230001C9784E190E00E94FC1F6C01FC0110825D
:1022400011821282138214821582168217821086DE
:10225000118612861386412C512C20EA622E20E42E
:10226000722E4486558666867786108A118A128A6F
:10227000138ABC01C7010E94060884E190E00E9415
:10228000FC1F5C01DC014D925D926D927C92139774
:1022900080E090E0A0E2B1E4F50184839583A68319
:1022A000B78380879187A287B38784879587A6871E
:1022B000B787108A118A128A138AB501C7010E9452
:1022C0000608B7018091B6029091B7020E94BD0A3C
:1022D0008EE090E00E94FC1F4C0184E090E0F4014D
:1022E0009183808317821682118610861386128648
:1022F0001586148684E190E00E94FC1F7C01DC01BD
:102300001D921D921D921C921397FC01148215823E
:102310001682178218961D921D921D921C921B9771
:10232000448655866686778650961D921D921D922C
:102330001C925397BC01C4010E940608B40180910D
:10234000B6029091B7020E94BD0A8CE090E00E9414
:10235000FC1F3C010E9490062A962FAD2A972B96CF
:102360003FAD2B974F89588D452BE1F04D8D5E8DFC
:10237000452BC1F0E1E0F0E0D3011196FC93EE9320
:1023800042E050E013965C934E9312974F89588D1C
:1023900015965C934E9314974D8D5E8D17965C93B6
:1023A0004E9316978CE090E02A962FAF2A972B96A3
:1023B0003FAF2B970E94FC1F4C010E9490062A966B
:1023C0002FAD2A972B963FAD2B9721143104B9F0EE
:1023D00061147104A1F081E090E0D40111969C9306
:1023E0008E9383E090E013969C938E9312971596AC
:1023F0003C922E92149719967C926E92189784E0D4
:1024000090E02A962FAF2A972B963FAF2B970E94EA
:10241000FC1F2C01FC0113821282118210826DA517
:102420007EA50E94070587E090E00E94FC1FFC014A
:1024300066246394712C71826082948283825682B6
:1024400045821282BC018091B6029091B7020E942F
:10245000950A84E090E00E94FC1F4C01DC01139679
:102460001C921E9212971D921C92B8010E940705A1
:10247000B501C4010E9407058CE090E00E94FC1F9A
:102480005C010E9490062A962FAD2A972B963FADAD
:102490002B972115310529F0F5017382628235836E
:1024A000248387E090E00E94FC1FFC0182E090E022
:1024B00091838083B482A382968285821282BF0137
:1024C0008091B6029091B7020E94950A8CE090E04C
:1024D0000E94FC1F4C010E9490062FA138A52115D7
:1024E000310559F081E090E0D40113969C938E93CE
:1024F000129715963C932E93149784E090E00E94D7
:10250000FC1F5C01FC011382128211821082B8014F
:102510000E940705B601C5010E94070587E090E00B
:102520000E94FC1FFC0183E090E0918380839482F1
:102530008382B682A5821282BF018091B6029091F9
:10254000B7020E94950A8CE090E00E94FC1F8C016B
:102550000E9490062B8D3C8D21153105B9F04F89D5
:10256000588D4115510591F082E090E0D801119607
:102570009C938E9313969C938E93129715963C93EF
:102580002E93149717965C934E9316978CE090E0D9
:102590000E94FC1F6C010E9490062DA13EA12115F6
:1025A0003105B9F04D8D5E8D4115510591F082E0F8
:1025B00090E0D60111969C938E9313969C938E93E4
:1025C000129715963C932E93149717965C934E93FF
:1025D00016978CE090E00E94FC1F5C010E94900620
:1025E0000115110581F0C114D10469F081E090E07A
:1025F000F5019183808384E090E093838283118747
:102600000087D386C2868CE090E00E94FC1F8C017C
:102610000E94900629A13AA121153105B9F0A11413
:10262000B104A1F081E090E0D80111969C938E93C3
:1026300083E090E013969C938E93129715963C93AB
:102640002E9314971996BC92AE92189784E090E05E
:102650000E94FC1F6C01FC01138212821182108205
:1026600069A57AA50E94070587E090E00E94FC1FFB
:10267000FC0184E090E09183808314830383D682FD
:10268000C5821282BF018091B6029091B7020E946A
:10269000950A84E090E00E94FC1F8C01DC011396F7
:1026A0001C921E9212971D921C9269A97AA90E94EF
:1026B0000705B701C8010E9407058CE090E00E9461
:1026C000FC1F7C010E9490062BA13CA12115310525
:1026D00059F081E090E0D70113969C938E93129766
:1026E00015963C932E93149787E090E00E94FC1F70
:1026F000FC0185E090E091838083F482E38216837D
:1027000005831282BF018091B6029091B7020E94A8
:10271000950A8CE090E00E94FC1F8C010E949006BC
:102720002B8D3C8D21153105C9F04DA15EA14115C0
:102730005105A1F081E090E0D80111969C938E9311
:1027400082E090E013969C938E93129715963C939B
:102750002E93149717965C934E9316978CE090E007
:102760000E94FC1F7C010E9490062114310481F01C
:102770000115110569F081E090E0F70191838083F4
:1027800083E090E0938382833582248211870087DF
:1027900084E090E00E94FC1F8C01DC0113961C92E7
:1027A0001E9212971D921C9269A57AA50E94070598
:1027B00087E090E00E94FC1FFC0186E090E091839E
:1027C0008083F482E382168305831282BF018091A5
:1027D000B6029091B7020E94950AFE013996FA8BD3
:1027E000E98B9E01235F3F4F3C8B2B8BAE014B5FF0
:1027F0005F4F5E8B4D8B8EE391E00E94B00C84EABC
:1028000092E00E94BE0CCB016D33710514F4009769
:1028100011F48CE390E00E942E0C82E992E00E9479
:10282000BE0CCB016D33710514F4009711F48CE3E9
:1028300090E00E942E0C80E892E00E94BE0CCB013A
:102840006D33710514F4009711F48CE390E00E944D
:102850002E0C82E992E00E94BE0C6D3371051CF4CF
:102860006115710511F46CE370E0072E000C880B04
:10287000990B0E94DA1E9B01AC0161E070E080912F
:10288000B6029091B7020E94780A84EA92E00E9410
:10289000BE0C6D3371051CF46115710511F46CE308
:1028A00070E0072E000C880B990B0E94DA1E9B012A
:1028B000AC0162E070E08091B6029091B7020E9494
:1028C000780A80E892E00E94BE0C6D3371051CF41A
:1028D0006115710511F46CE370E0072E000C880B94
:1028E000990B0E94DA1E9B01AC0163E070E08091BD
:1028F000B6029091B7020E94780A8091B602909138
:10290000B7029AA389A3DC0112962D903C901397ED
:10291000910121153105E1F0F901A081B1811696EF
:102920000D90BC91A02D109769F08D919C911197FD
:10293000FC01108A118A128A138A12960D90BC919A
:10294000A02DF1CFD90112962D913C911397E1CF93
:10295000E9A1FAA10680F781E02DFEA3EDA39F0176
:1029600021153105A1F1F901A081B18116960D90D3
:10297000BC91A02D109769F08D919C911197FC014D
:10298000108A118A128A138A12960D90BC91A02D7A
:10299000F1CFD90112962D913C911397E1CFAB8DD8
:1029A000BC8D0D911C910115110501F5AB8DBC8DF0
:1029B00012960D90BC91A02DBC8FAB8FEB8DFC8D32
:1029C000EF2B69F7D10112962D903C9013972114AB
:1029D000310409F41AC1F1010190F081E02DFCA34A
:1029E000EBA3268137813C8F2B8FE8CFEBA1FCA195
:1029F000C280D380E480F580D8012D913D914D9126
:102A00005C912F8B388F498F5A8FC701B6010E9476
:102A10002B1EF801448055806680778087FF22C096
:102A2000A30192016F89788D898D9A8D0E942B1E4A
:102A30008111E5C0D8011896CD90DD90ED90FC9005
:102A40001B97A7019601C301B2010E942B1E882388
:102A500009F4D5C0F8012485358546855785C70119
:102A6000B601BDC02F89388D498D5A8DC701B60179
:102A70000E948A1F87FD34C0A3019201C701B601DD
:102A80000E942B1E87FF2CC02F89388D498D5A8DAF
:102A9000C301B2010E94BE1D9B01AC0160E070E069
:102AA00080E89FE30E94301E4B015C01A30192016C
:102AB000C701B6010E94BE1D9B01AC01C501B40156
:102AC0000E948F1F20E030E040E85FE30E94BF1DBE
:102AD000D80150966D937D938D939C93539766CFB9
:102AE000A3019201C701B6010E948A1F87FD0CC095
:102AF000F8012085318542855385C701B6010E94C2
:102B00002B1E18160CF06FC0F80180849184A284EB
:102B1000B384A5019401C701B6010E948A1FD801A0
:102B20001C962D913D914D915C911F972D8F3E8F5D
:102B30004F8F58A3181684F5C701B6010E942B1EAB
:102B4000181654F12D8D3E8D4F8D58A1C501B4013D
:102B50000E94BE1D9B01AC0160E070E080E89FE335
:102B60000E94301E2B013C01A5019401C701B60152
:102B70000E94BE1D9B01AC01C301B2010E948F1FC8
:102B800020E030E040E85FE30E94BF1DF801608B69
:102B9000718B828B938B0ACF2D8D3E8D4F8D58A1DB
:102BA000C701B6010E948A1F18160CF0FFCE2D8DAA
:102BB0003E8D4F8D58A1C501B4010E942B1E81117D
:102BC0001EC0A3019201C501B4010E942B1E8823DF
:102BD000B1F02F89388D498D5A8DC301B2010E9401
:102BE0002B1E882361F020E030E040E85FE3D8014D
:102BF00050962D933D934D935C935397D7CEF80108
:102C0000108A118A128A138AD1CEE9A1FAA102850B
:102C10001385772473940115110509F44AC0D8016E
:102C2000ED90FC90F701838194810097B1F10E94AF
:102C30002F054B015C0120E030E0A9010E948A1FB2
:102C4000181624F4D70112967C9202C0F701128262
:102C5000D7011596ED91FC911697E280F380E1146F
:102C6000F104D9F0F701C080D180A5019401D6010B
:102C700050966D917D918D919C9153970E942B1E42
:102C800087FF05C0F601808A918AA28AB38AD7019C
:102C90001296ED90FC901397E2CFF8010281138118
:102CA000BACFADA1BEA112960D90BC91A02DBEA32E
:102CB000ADA3EDA1FEA1EF2B09F40CC4ADA1BEA103
:102CC0000D90BC91A02DB88FAF8B3D01BAE06B0E7B
:102CD000711CEF89F88D64857585C3010E942E08EB
:102CE000AF89B88D1D961C921E921C971B961C9244
:102CF0001E921A9716964D905C90179741145104A6
:102D000009F4B1C1F2010081118120E030E0A90194
:102D1000D80150966D917D918D919C9153970E9411
:102D20008A1F18160CF09BC1F801C080D180E28088
:102D3000F3802481358146815781C701B6010E9405
:102D40002B1E882391F000E010E09801B701A60146
:102D5000C3010E944008811108C000E010E0980102
:102D6000B701A601C3010E947D08D2010D911C91FB
:102D7000F801C480D580E680F780208531854285C2
:102D80005385C701B6010E942B1E811130C0D801A6
:102D9000BC91BB8FF801F181FD8FD80112963C9058
:102DA000129713962C9013971C96BC91B9A3F80117
:102DB000F585FBA3D8011E96BC91BFA3F801B7848B
:102DC00079A16BA1272F362F4B2F5B2DBB8DAD8D9E
:102DD000F1016B2F7A2F8F2F9E2F0E942B1E8111B6
:102DE00021C5F80180889188A288B388FFC0F801C6
:102DF00080889188A288B38820E030E040E85FE3D3
:102E0000682D792D8A2D9B2D0E942B1E811120C0AB
:102E100000E010E020E83FE3B701A601C3010E94F3
:102E20004008811109C000E010E020E83FE3B7014D
:102E3000A601C3010E947D08D201ED91FC9180881A
:102E40009188A288B388C084D184E284F384CEC000
:102E5000CD86DE86EF86F88A9401F501C901DF018F
:102E600089879A87AB87BC87D8017C9111966C9132
:102E7000119712965C91129713964C91BA89BF9351
:102E800089898F939C899F93AB89AF93FF93EF932D
:102E90003F932F93D8011F968C911F978F931E9667
:102EA0008C911E978F931D968C911D978F931C96D6
:102EB0008C918F93FF93EF933F932F934F935F9357
:102EC0006F937F93812C912C80E8A82E8FE3B82EEE
:102ED00000E010E09801FB01CA014F2F5E2F692F1F
:102EE000782F8F89988D0E949E0689849A84AB845E
:102EF000BC84CD84DE84EF84F88895018401B70119
:102F0000A601C3010E9440080FB6F894DEBF0FBEB1
:102F1000CDBF811107C095018401B701A601C3018E
:102F20000E947D08D201ED91FC9184819581A6815A
:102F3000B7818D839E83AF83B887508941899289F9
:102F40008389252F342F8C01C901A12FB02F8983AC
:102F50009A83AB83BC83E484F584B685A7854085DA
:102F600051856285738581E090E08C0F9D1F9F9352
:102F70008F939E899F938D898F930F931F933F9378
:102F80002F93AF93BF93FF92EF920F931F933F93B3
:102F90002F9383818F9382818F9381818F938081FF
:102FA0008F93812C912C5401CD01CE2CDF2CE92E56
:102FB000F82E00E010E020E83FE38F89988D0E9412
:102FC0009E0689809A80AB80BC80CD80DE80EF80B9
:102FD000F88495018401B701A601C3010E9440084D
:102FE0000FB6F894DEBF0FBECDBF07C095018401B8
:102FF000B701A601C3010E944008811107C09501D5
:103000008401B701A601C3010E947D08D201ED90A1
:10301000FC90F70184849584A684B784A50194016B
:1030200060857185828593850E942B1E8823B9F067
:1030300000E010E09801B501A401C3010E9440081E
:10304000882309F44FC4D7012D913D914D915C9196
:10305000C501B4010E942B1E882309F443C4F20168
:10306000428053804BCEAF89B88D1C960D90BC9199
:10307000A02DBCA3ABA32BA13CA1232B09F411CE03
:103080002BA03CA0F101008111810115110581F0F7
:10309000F8012281338144815581D10112966D91CD
:1030A0007D918D919C9115970E942B1E87FF07C0E3
:1030B0003C8E2B8E23963FAE2EAE239713C0180165
:1030C000E1CF208131813AA329A3232BA1F42396B8
:1030D000AEADBFAD23970D90BC91A02D2396BFAF91
:1030E000AEAF23972396AEADBFAD2397ED91FC9184
:1030F000309739F7E7C1D1011A960D90BC91A02DF8
:10310000B8A7AFA3D10112962D913D914D915C913D
:10311000159721962CAF3DAF4EAF5FAF2197169616
:103120002D913D914D915C91199729AF3AAF4BAFDD
:103130005CAF22813381448155812DAB3EAB4FABD7
:1031400058AF86819781A085B18589AB9AABABAB2F
:10315000BCAB9C01AD01A9A1BAA116966D917D9160
:103160008D919C9119970E94BE1D27966CAF7DAFE3
:103170008EAF9FAF279721962CAD3DAD4EAD5FAD85
:103180002197EFA1F8A562817381848195810E94C6
:10319000BE1D6DA77EA78FA798AB2DA93EA94FA9ED
:1031A00058ADA9A1BAA112966D917D918D919C9176
:1031B00015970E94BE1D2B013C0129AD3AAD4BADC8
:1031C0005CADEFA1F8A566817781808591850E942D
:1031D000BE1D69A77AA78BA79CA72DA53EA54FA5C5
:1031E00058A927966CAD7DAD8EAD9FAD27970E94F7
:1031F0008F1F6B017C0129A53AA54BA55CA5C301D6
:10320000B2010E948F1F9B01AC01C701B6010E9451
:10321000BE1D6D8F7E8F8F8F98A329A93AA94BA9C8
:103220005CA969AD7AAD8BAD9CAD0E94BE1D4B0112
:103230005C012DA93EA94FA958AD21966CAD7DAD7D
:103240008EAD9FAD21970E94BE1D6B017C01A50133
:103250009401C301B2010E948F1F2B013C01A70101
:10326000960127966CAD7DAD8EAD9FAD27970E94E0
:103270008F1F9B01AC01C301B2010E94BE1D2B0137
:103280003C01A50194016DA57EA58FA598A90E947A
:103290008F1F4B015C01A701960169A57AA58BA53B
:1032A0009CA50E948F1F9B01AC01C501B4010E9427
:1032B000BE1D6B017C0120E030E0A9016D8D7E8D8B
:1032C0008F8D98A10E942B1E87FF09C02D8D3E8DEA
:1032D0004F8D58A150582D8F3E8F4F8F58A320E00F
:1032E00030E0A901C301B2010E942B1E87FF04C078
:1032F00077FA709477F8709420E030E0A901C70164
:10330000B6010E942B1E87FF04C0F7FAF094F7F86D
:10331000F0942FE632E143E85AE36D8D7E8D8F8D78
:1033200098A10E942B1E87FDD2CE2D8D3E8D4F8DF4
:1033300058A1C301B2010E94301E4B015C0120E084
:1033400030E0A9010E942B1E87FDC1CE20E030E0B5
:1033500040E85FE3C501B4010E948A1F18160CF40F
:10336000B6CE2D8D3E8D4F8D58A1C701B6010E945E
:10337000301E6B017C0120E030E0A9010E942B1E71
:1033800087FDA5CE20E030E040E85FE3C701B6014D
:103390000E948A1F18160CF49ACE8CE090E00E94CE
:1033A000FC1F8C01009709F492CEE9A1FAA1DC017F
:1033B000ED93FC932DA53EA54FA558A9C501B401D9
:1033C0000E948F1F9B01AC0121966CAD7DAD8EAD2F
:1033D0009FAD21970E94BF1DD80112966D937D93DA
:1033E0008D939C93159729A53AA54BA55CA5C5017E
:1033F000B4010E948F1F9B01AC0169AD7AAD8BAD0A
:103400009CAD0E94BF1DF8016683778380879187FA
:103410002FA138A533872287A9A1BAA11B961C9397
:103420000E931A97F90111830083AB8DBC8D129610
:103430002D913D914D915C9115971696CD90DD9013
:10344000ED90FC9019970C9111961C911197CD015C
:103450002A962FAF2A972B963FAF2B9728964FAFE0
:10346000289729965FAF29970E9491202A962FAD21
:103470002A972B963FAD2B9728964FAD28972996E4
:103480005FAD29976DA97EA98FA998AD0E942B1ECB
:1034900081110AC0A701960169A97AA98BA99CA9E3
:1034A0000E942B1E882339F00B8F1C8FEB8DFC8D17
:1034B000EF2B09F0BACFEF89F88D0484F585E02D64
:1034C000FCA3EBA3EBA1FCA10284F385E02DFCA3FC
:1034D000EBA3D1CD8FE491E00E94B00C61E070E0ED
:1034E0008091B6029091B7020E94600A90E00E941B
:1034F0002E0C62E070E08091B6029091B7020E94BB
:10350000600A90E00E942E0C63E070E08091B602A9
:103510009091B7020E94600A90E00E942E0C64E035
:1035200070E08091B6029091B7020E94600A90E02C
:103530000E942E0C65E070E08091B6029091B70277
:103540000E94600A90E00E942E0C66E070E080917C
:10355000B6029091B7020E94600A90E00E942E0C81
:1035600067E070E08091B6029091B7020E94600A15
:1035700090E00E942E0C68E070E08091B60290917D
:10358000B7020E94600A90E00E942E0C69E070E091
:103590008091B6029091B7020E94600A90E00E946A
:1035A0002E0C0091B6021091B70261E070E0C801E4
:1035B0000E94D6080E94A21E4B015C019B0162E0A2
:1035C00070E0C8012A968FAE2A972B963FAF2B97B3
:1035D0000E94D6080E94A21E6B017C0163E070E08D
:1035E000C8010E94D6080E94A21E6F8B788F898F17
:1035F0009A8F2F88388C64E070E0C8010E94D6084A
:103600000E94A21E2B013C018B0187E591E00E94E4
:10361000B00CC4010E942E0C8F89988D0E942E0C34
:10362000C2010E942E0C2A962FAD2A972B963FADF1
:103630002B97F5E02F1631043CF1452809F051C0D5
:103640008AE791E00E94B00CC6010E942E0CC601D0
:103650000E94D60B80918E0190918F01813091054F
:1036600009F0D0C020918C0130918D01232B09F0FD
:10367000C9C090938D0180938C0182E090E090937B
:103680008F0180938E01BEC01214130454F5452897
:1036900041F587E691E00E94B00CC6010E942E0C15
:1036A000C6010E94020C80918E0190918F01892B9E
:1036B00031F481E090E090938F0180938E018091AE
:1036C0008E0190918F01029709F09CC00E94B40B6B
:1036D00010928F0110928E0110928D0110928C0128
:1036E0003FC0101611060CF07AC084EA92E00E94E6
:1036F000BE0C8B016D33710514F4672B11F40CE3D0
:1037000010E080E892E00E94BE0C6D3371051CF45D
:103710006115710511F46CE370E0C6010617170717
:103720000CF442C00E94020C81E691E00E94B00CB1
:10373000C6010E942E0C80918E0190918F01892BE1
:1037400031F481E090E090938F0180938E0180911D
:103750008E0190918F01029709F054C00E94B40B22
:1037600084EA92E00E94BE0C8B016D33710514F463
:10377000672B11F40CE310E080E892E00E94BE0C8D
:103780006D3371056CF06CE370E080E293E0061736
:1037900017071CF00E94020C35C00E94D60B32C0E5
:1037A0006115710581F3F1CF0E94D60B84E791E09A
:1037B0000E94B00CC6010E942E0C80918E01909147
:1037C0008F0181309105F1F420918C0130918D01B0
:1037D000232BC1F490938D0180938C0113C0B4010D
:1037E0002B3A31051CF082E390E002C083E290E0C6
:1037F0000E94710B10928F0110928E0110928D0118
:1038000010928C0180918E0190918F010E942E0C5C
:1038100080918C0190918D010E942E0C0E947A0162
:103820000C94FB13D8015096AC90509751969C90F5
:10383000519752968C90529753961C9120E030E00D
:1038400040E85FE36A2D792D882D912F0E942B1E71
:10385000811110C000E010E020E83FE3B701A601AD
:10386000C3010E9440088111D1CB00E010E020E8A4
:103870003FE3C7CBCD86DE86EF86F88A2A2D392D29
:10388000482D512FC901DA0189879A87AB87BC87F8
:10389000FA89FF9389898F939C899F93AB89AF9312
:1038A0001F938F929F92AF92BF92BFA1BF93EBA144
:1038B000EF93F9A1FF931F938F929F92AF922F9254
:1038C0003F922D8D2F933B8D3F93812C912C90E82F
:1038D000A92E9FE3B92E00E010E09801FB8DED8D3D
:1038E000C101FBCA00E010E09801B501A401C301C9
:1038F0000E947D08B4CB86E291E09093B902809358
:10390000B8028091D8019091D901885B924071F4FE
:10391000E091CB02F091CC0290818091CD02809514
:10392000892380831092D9011092D80108951092B2
:10393000E6011092E50188EE93E0A0E0B0E080930C
:10394000E7019093E801A093E901B093EA0126E131
:1039500031E03093E4012093E30125EC30E0309333
:10396000F0012093EF0124EC30E03093F20120933A
:10397000F10120EC30E03093F4012093F30121ECCD
:1039800030E03093F6012093F50122EC30E03093E3
:10399000F8012093F70126EC30E03093FA012093F0
:1039A000F9011092FC011092FD011092FE0110929B
:1039B000FF011092BB021092BA028093BC02909356
:1039C000BD02A093BE02B093BF0286E291E0909345
:1039D000B9028093B8021092CF021092CE021092D8
:1039E000D1021092D0021092D3021092D202109201
:1039F000D5021092D4026091D6026E7F6D7F6093E3
:103A0000D6026695617081E0682780E00E9484029A
:103A100061E080E00E94D002EEEAF0E0E491E09301
:103A2000C802EAE9F0E0E491F0E0EE0FFF1FEA5788
:103A3000FF4F859194919093CA028093C90260E0F0
:103A400081E00E94D0028091D60281FD04C061E035
:103A500081E00E94840281E08093C402EFEAF0E0FA
:103A6000E491E093C502EBE9F0E0E491F0E0EE0FC1
:103A7000FF1FE057FF4F859194919093C702809369
:103A8000C6028CE090E00E94FC1FFC0113821282AF
:103A90001182108217821682158214821386128672
:103AA000118610869093B7028093B60224E630E028
:103AB00042E063E084EA92E00E94B50424E630E04C
:103AC00044E068E082E992E00E94B50424E630E038
:103AD0004CE06DE080E892E00C94B50497FB072E73
:103AE00016F4009407D077FD09D00E94A41D07FCAE
:103AF00005D03EF4909581959F4F089570956195FE
:103B00007F4F0895A1E21A2EAA1BBB1BFD010DC019
:103B1000AA1FBB1FEE1FFF1FA217B307E407F5077D
:103B200020F0A21BB30BE40BF50B661F771F881F59
:103B3000991F1A9469F760957095809590959B01EF
:103B4000AC01BD01CF010895AA1BBB1B51E107C009
:103B5000AA1FBB1FA617B70710F0A61BB70B881F1D
:103B6000991F5A95A9F780959095BC01CD010895AC
:103B7000EE0FFF1F0590F491E02D09945058BB27DC
:103B8000AA270E94D61D0C94501F0E94421F38F095
:103B90000E94491F20F039F49F3F19F426F40C9439
:103BA0003F1F0EF4E095E7FB0C94391FE92F0E94AC
:103BB000611F58F3BA17620773078407950720F04F
:103BC00079F4A6F50C94831F0EF4E0950B2EBA2F12
:103BD000A02D0B01B90190010C01CA01A001112413
:103BE000FF27591B99F0593F50F4503E68F11A16BF
:103BF000F040A22F232F342F4427585FF3CF469550
:103C000037952795A795F0405395C9F77EF41F1671
:103C1000BA0B620B730B840BBAF09150A1F0FF0F3B
:103C2000BB1F661F771F881FC2F70EC0BA0F621F27
:103C3000731F841F48F4879577956795B795F79517
:103C40009E3F08F0B0CF9395880F08F09927EE0FAC
:103C50009795879508950E94151F08F481E00895AF
:103C60000E94441E0C94501F0E94491F58F00E944D
:103C7000421F40F029F45F3F29F00C94391F511185
:103C80000C94841F0C943F1F0E94611F68F39923BA
:103C9000B1F3552391F3951B550BBB27AA27621748
:103CA0007307840738F09F5F5F4F220F331F441F55
:103CB000AA1FA9F335D00E2E3AF0E0E832D0915089
:103CC0005040E695001CCAF72BD0FE2F29D0660F76
:103CD000771F881FBB1F261737074807AB07B0E8B9
:103CE00009F0BB0B802DBF01FF2793585F4F3AF0BF
:103CF0009E3F510578F00C94391F0C94841F5F3F50
:103D0000E4F3983ED4F3869577956795B795F79544
:103D10009F5FC9F7880F911D9695879597F908952C
:103D2000E1E0660F771F881FBB1F621773078407C8
:103D3000BA0720F0621B730B840BBA0BEE1F88F7D7
:103D4000E09508950E94A91E6894B1110C94841FF7
:103D500008950E94691F88F09F5798F0B92F9927FE
:103D6000B751B0F0E1F0660F771F881F991F1AF066
:103D7000BA95C9F714C0B13091F00E94831FB1E029
:103D800008950C94831F672F782F8827B85F39F028
:103D9000B93FCCF3869577956795B395D9F73EF4FF
:103DA00090958095709561957F4F8F4F9F4F0895A7
:103DB000E89409C097FB3EF49095809570956195C5
:103DC0007F4F8F4F9F4F9923A9F0F92F96E9BB277B
:103DD0009395F695879577956795B795F111F8CFF7
:103DE000FAF4BB0F11F460FF1BC06F5F7F4F8F4F62
:103DF0009F4F16C0882311F096E911C0772321F058
:103E00009EE8872F762F05C0662371F096E8862FEF
:103E100070E060E02AF09A95660F771F881FDAF746
:103E2000880F9695879597F90895990F0008550F73
:103E3000AA0BE0E8FEEF16161706E807F907C0F030
:103E400012161306E407F50798F0621B730B840B38
:103E5000950B39F40A2661F0232B242B252B21F412
:103E600008950A2609F4A140A6958FEF811D811DB2
:103E7000089597F99F6780E870E060E008959FEFEC
:103E800080EC089500240A941616170618060906F1
:103E9000089500240A9412161306140605060895C0
:103EA000092E0394000C11F4882352F0BB0F40F448
:103EB000BF2B11F460FF04C06F5F7F4F8F4F9F4F88
:103EC000089557FD9058440F551F59F05F3F71F00A
:103ED0004795880F97FB991F61F09F3F79F0879571
:103EE0000895121613061406551FF2CF4695F1DFFA
:103EF00008C0161617061806991FF1CF869571058A
:103F0000610508940895E894BB2766277727CB01BD
:103F100097F908950E94151F08F48FEF08950E94E5
:103F2000A21F0C94501F0E94421F38F00E94491F8C
:103F300020F0952311F00C94391F0C943F1F11248D
:103F40000C94841F0E94611F70F3959FC1F3950F1D
:103F500050E0551F629FF001729FBB27F00DB11D0D
:103F6000639FAA27F00DB11DAA1F649F6627B00D9D
:103F7000A11D661F829F2227B00DA11D621F739F86
:103F8000B00DA11D621F839FA00D611D221F749F94
:103F90003327A00D611D231F849F600D211D822FDB
:103FA000762F6A2F11249F5750409AF0F1F0882302
:103FB0004AF0EE0FFF1FBB1F661F771F881F91502F
:103FC0005040A9F79E3F510580F00C94391F0C9486
:103FD000841F5F3FE4F3983ED4F386957795679509
:103FE000B795F795E7959F5FC1F7FE2B880F911D59
:103FF0009695879597F90895CF93DF938230910531
:1040000010F482E090E0E091D902F091DA0220E031
:1040100030E0C0E0D0E0309711F140815181481785
:104020005907C0F04817590761F48281938120979E
:1040300019F09B838A832BC09093DA028093D90274
:1040400026C02115310519F04217530718F49A01BB
:10405000BE01DF01EF010280F381E02DDCCF2115ED
:10406000310509F1281B390B2430310590F41296E3
:104070008D919C9113976115710521F0FB0193833C
:10408000828304C09093DA028093D902FD013296B4
:1040900044C0FD01E20FF31F819391932250310937
:1040A0002D933C933AC02091D7023091D802232B14
:1040B00041F420910201309103013093D802209302
:1040C000D70220910001309101012115310541F401
:1040D0002DB73EB74091040150910501241B350BCB
:1040E000E091D702F091D802E217F307A0F42E1B5B
:1040F0003F0B2817390778F0AC014E5F5F4F24174C
:10410000350748F04E0F5F1F5093D8024093D702F7
:104110008193919302C0E0E0F0E0CF01DF91CF9175
:1041200008950F931F93CF93DF93009709F48CC0EA
:10413000FC013297138212820091D9021091DA02A7
:104140000115110581F420813181820F931F209187
:10415000D7023091D8022817390779F5F093D802A1
:10416000E093D70271C0D80140E050E0AE17BF071E
:1041700050F412962D913C911397AD012115310504
:1041800009F1D901F3CF9D01DA01338322836081E4
:104190007181860F971F8217930769F4EC012881BC
:1041A0003981260F371F2E5F3F4F318320838A814D
:1041B0009B8193838283452B29F4F093DA02E09369
:1041C000D90242C01396FC93EE931297ED014991E8
:1041D00059919E01240F351FE217F30771F4808176
:1041E0009181840F951F029611969C938E938281E4
:1041F000938113969C938E931297E0E0F0E0D801A0
:1042000012968D919C911397009719F0F8018C01EB
:10421000F6CF8D919C9198012E5F3F4F820F931F97
:104220002091D7023091D8022817390769F43097C6
:1042300029F41092DA021092D90202C0138212827B
:104240001093D8020093D702DF91CF911F910F9165
:10425000089581E090E0F8940C942E2110E0C2E6DD
:10426000D0E004C0FE010E94B81D2196C336D107DC
:06427000C9F7F894FFCF2E
:104276000000DB02800005000900070006000B00B5
:104286000A000000000011018D00DA00B800CC0021
:104296005801000000009D018D00F1010902840112
:1042A6009C010D000C0008000400030002006F7260
:1042B6007967696E616C6E79207072696E74005AE6
:1042C60061736164793A0044656666757A696679F0
:1042D60000496E6E653A204C65776F206F206D6FD2
:1042E60063793A00496E6E65203A507261776F20A5
:0C42F6006F206D6F63793A000D0A000024
:107E0000112484B714BE81FFF0D085E080938100F7
:107E100082E08093C00088E18093C10086E0809377
:107E2000C20080E18093C4008EE0C9D0259A86E02C
:107E300020E33CEF91E0309385002093840096BBD3
:107E4000B09BFECF1D9AA8958150A9F7CC24DD24C4
:107E500088248394B5E0AB2EA1E19A2EF3E0BF2EE7
:107E6000A2D0813461F49FD0082FAFD0023811F036
:107E7000013811F484E001C083E08DD089C08234E0
:107E800011F484E103C0853419F485E0A6D080C0E4
:107E9000853579F488D0E82EFF2485D0082F10E0AE
:107EA000102F00270E291F29000F111F8ED06801E7
:107EB0006FC0863521F484E090D080E0DECF843638
:107EC00009F040C070D06FD0082F6DD080E0C81688
:107ED00080E7D80618F4F601B7BEE895C0E0D1E017
:107EE00062D089930C17E1F7F0E0CF16F0E7DF06D8
:107EF00018F0F601B7BEE89568D007B600FCFDCFD4
:107F0000A601A0E0B1E02C9130E011968C91119780
:107F100090E0982F8827822B932B1296FA010C0160
:107F200087BEE89511244E5F5F4FF1E0A038BF0790
:107F300051F7F601A7BEE89507B600FCFDCF97BE46
:107F4000E89526C08437B1F42ED02DD0F82E2BD052
:107F50003CD0F601EF2C8F010F5F1F4F84911BD097
:107F6000EA94F801C1F70894C11CD11CFA94CF0C13
:107F7000D11C0EC0853739F428D08EE10CD085E9AC
:107F80000AD08FE07ACF813511F488E018D01DD067
:107F900080E101D065CF982F8091C00085FFFCCF94
:107FA0009093C60008958091C00087FFFCCF809118
:107FB000C00084FD01C0A8958091C6000895E0E648
:107FC000F0E098E1908380830895EDDF803219F02E
:107FD00088E0F5DFFFCF84E1DECF1F93182FE3DFCA
:107FE0001150E9F7F2DF1F91089580E0E8DFEE27F6
:047FF000FF270994CA
:027FFE00040479
:0400000300007E007B
:00000001FF
