:100000000C9463000C948B000C948B000C94B10343
:100010000C94B1030C94B1030C948B000C94410428
:100020000C948B000C948B000C948B000C948B0024
:100030000C948B000C948B000C948B000C948B0014
:100040000C9467030C948B000C940B020C94E50148
:100050000C948B000C948B000C948B000C948B00F4
:100060000C948B000C948B000000000024002700EF
:100070002A0000000008000201000003040700003D
:1000800000000000000000000000250028002B00F8
:1000900000000000230026002900040404040404D6
:1000A0000404020202020202030303030303010227
:1000B00004081020408001020408102001020408F6
:1000C0001020C91EBF1E11241FBECFEFD8E0DEBF17
:1000D000CDBF11E0A0E0B1E0EAEDF6E402C005908A
:1000E0000D92AA39B107D9F722E0AAE9B1E001C01F
:1000F0001D92AB3EB207E1F710E0C2E6D0E004C0CB
:100100002197FE010E94EA1FC136D107C9F70E945C
:10011000D60D0C9460230C940000CF92DF92EF92E6
:10012000FF920F931F93CF93DF936C017A018B01A2
:10013000C0E0D0E0CE15DF0589F0D8016D918D01CA
:10014000D601ED91FC910190F081E02DC601099559
:10015000892B11F47E0102C02196ECCFC701DF91FB
:10016000CF911F910F91FF90EF90DF90CF90089566
:10017000833081F028F4813099F08230A1F0089525
:100180008730A9F08830B9F08430D1F480918000B4
:100190008F7D03C0809180008F77809380000895C9
:1001A00084B58F7702C084B58F7D84BD089580911A
:1001B000B0008F7703C08091B0008F7D8093B00036
:1001C0000895CF93DF93282F30E0F901EE58FF4FC9
:1001D0008491F901E255FF4FD491F901E656FF4FA2
:1001E000C491CC2391F081110E94B800EC2FF0E073
:1001F000EE0FFF1FE057FF4FA591B491EC91ED2357
:1002000081E090E021F480E002C080E090E0DF91A6
:10021000CF91089520919C0130919D0128173907B5
:1002200071F490919A0180919B01981741F0E091AF
:100230009A01F0E0E655FE4F808190E008958FEF3F
:100240009FEF089508951F93CF93DF93DC015C9691
:100250002D913C915D972115310539F481E090E0B5
:1002600013969C938E9312973DC05196ED91FC91FD
:10027000529750969C915097892F80951FB75E9604
:100280004C915E9741FB772770F941FD6095F8949A
:100290004081772311F0492B01C048234083E901B5
:1002A0002197F1F748E0508160FF02C0592B01C04F
:1002B00058235083E9012197F1F76695415099F74A
:1002C000772321F090818923808303C08081982B3C
:1002D00090831FBF5C968D919C915D970197F1F77C
:1002E00021E030E0C901DF91CF911F910895209165
:1002F0009C0130919D012817390771F480919B0171
:1003000020919A0190E0805C9F4F821B910960E4EC
:1003100070E00E94A01F089580E090E00895209171
:100320009C0130919D0128173907B9F490919A01E9
:1003300080919B01981789F0E0919A01F0E0E655D1
:10034000FE4F808120919A0130E02F5F3F4F2F7345
:10035000332720939A0190E008958FEF9FEF08953F
:100360000E945B2383EF91E00E94130C21E0892B14
:1003700009F420E0822F08956115710579F0FB01E1
:1003800001900020E9F73197AF01461B570BDC01C4
:10039000ED91FC910280F381E02D099480E090E0E2
:1003A00008950F931F93CF93DF93EC010E94BC013C
:1003B0008C0166E971E0CE010E94BC01800F911FA3
:1003C000DF91CF911F910F9108951F920F920FB659
:1003D0000F9211242F933F934F935F936F937F93CB
:1003E0008F939F93AF93BF93EF93FF9383EF91E02E
:1003F0000E944C0DFF91EF91BF91AF919F918F9112
:100400007F916F915F914F913F912F910F900FBE10
:100410000F901F9018951F920F920FB60F921124F4
:100420002F938F939F93EF93FF93E0910302F091AB
:1004300004028081E0910902F0910A0282FD12C05B
:10044000908180910C028F5F8F7320910D02821733
:1004500051F0E0910C02F0E0ED50FE4F958F80934B
:100460000C0201C08081FF91EF919F918F912F919C
:100470000F900FBE0F901F9018951F93CF93DF938F
:10048000282F30E0F901EE58FF4F8491F901E25531
:10049000FF4FD491F901E656FF4FC491CC23C9F028
:1004A000162F81110E94B800EC2FF0E0EE0FFF1F15
:1004B000EA57FF4FA591B4918FB7F894111105C079
:1004C0009C91ED2FE095E92302C0EC91ED2BEC938C
:1004D0008FBFDF91CF911F910895CF93DF9390E06D
:1004E000FC01E255FF4F2491FC01E656FF4F849139
:1004F000882361F190E0880F991FFC01E859FF4FB4
:10050000C591D491FC01EA57FF4FA591B4916111B7
:1005100009C09FB7F8948881209582238883EC9145
:100520002E230BC0623061F49FB7F8943881822F7C
:10053000809583238883EC912E2B2C939FBF06C03C
:100540008FB7F894E8812E2B28838FBFDF91CF914E
:1005500008951F93CF93DF93182FEB0161E00E9462
:100560006D02209711F460E004C0CF3FD10539F44B
:1005700061E0812FDF91CF911F910C943D02E12F1B
:10058000F0E0EE58FF4FE491E330F9F048F4E13049
:10059000B9F0E230A1F584B5806284BDC8BD34C035
:1005A000E730E9F0E83019F1E43049F58091800056
:1005B000806280938000D0938B00C0938A0024C017
:1005C00084B5806884BDC7BD1FC0809180008068ED
:1005D00080938000D0938900C093880015C08091DB
:1005E000B00080688093B000C093B3000DC08091CC
:1005F000B00080628093B000C093B40005C0C038E2
:10060000D1050CF0B5CFAFCFDF91CF911F910895F9
:100610003FB7F8948091EF019091F001A091F10122
:10062000B091F20126B5A89B05C02F3F19F00196A5
:10063000A11DB11D3FBFBA2FA92F982F8827820F68
:10064000911DA11DB11DBC01CD0142E0660F771FB8
:10065000881F991F4A95D1F708958F929F92AF9264
:10066000BF92CF92DF92EF92FF926B017C010E94CA
:1006700008034B015C01C114D104E104F104F1F061
:100680000E940803DC01CB0188199909AA09BB095A
:10069000883E9340A105B10570F321E0C21AD1084C
:1006A000E108F10888EE880E83E0981EA11CB11CB9
:1006B000C114D104E104F10419F7DDCFFF90EF90EC
:1006C000DF90CF90BF90AF909F908F9008951F9232
:1006D0000F920FB60F9211242F933F938F939F93F6
:1006E000AF93BF938091EB019091EC01A091ED014C
:1006F000B091EE013091EA0123E0230F2D3720F471
:100700000196A11DB11D05C026E8230F0296A11D6B
:10071000B11D2093EA018093EB019093EC01A0932B
:10072000ED01B093EE018091EF019091F001A09165
:10073000F101B091F2010196A11DB11D8093EF016D
:100740009093F001A093F101B093F201BF91AF91AA
:100750009F918F913F912F910F900FBE0F901F90FF
:1007600018951F920F920FB60F9211242F933F935B
:100770004F935F936F937F938F939F93AF93BF93A9
:10078000EF93FF93E0919C01F0919D01309709F464
:1007900051C0968DA685B785858591FF04C09C9133
:1007A000892329F447C09C91892309F043C0A38978
:1007B000B4899C918589809589238C9386899789B2
:1007C0000197F1F7608D718DA685B785558538E065
:1007D00020E0CB010197F1F7822F90E09595879566
:1007E000282F4C91452309F02068315091F7868DD0
:1007F00081FD209580919B0190E001968F73992750
:1008000030919A01381749F0A0919B01B0E0A655AC
:10081000BE4F2C9380939B0103C0868D8160868F91
:10082000828D938D0197F1F7A389B4899C91858975
:10083000892B8C93FF91EF91BF91AF919F918F91F5
:100840007F916F915F914F913F912F910F900FBECC
:100850000F901F901895E0919C01F0919D01E81771
:10086000F90769F4A389B4899C91858980958923C6
:100870008C9310929D0110929C0181E0089580E07C
:1008800008951F920F920FB60F9211242F933F934A
:100890004F935F936F937F938F939F93AF93BF9388
:1008A000EF93FF93E091A801F091A9010995FF91C1
:1008B000EF91BF91AF919F918F917F916F915F91D8
:1008C0004F913F912F910F900FBE0F901F90189551
:1008D000DC0170E0FB01E255FF4FE4911496EC93CC
:1008E000149750E0FA01E255FF4FE4911596EC930E
:1008F000159766567F4FFB018491E82FF0E0EE0FCD
:10090000FF1FEA57FF4F8591949117969C938E9302
:100910001697FA01E656FF4F449150E0440F551FD9
:1009200040575F4FFA018591949119969C938E934D
:100930001897FB016491E62FF0E0EE0FFF1FE859D6
:10094000FF4F859194911B969C938E931A972F5FDE
:100950003F4F49E3429FC001439F900D11248E38C1
:10096000FFE69F0710F08DE89FE61D969C938E93FF
:100970001C9708950F931F93CF93DF93EC018B0186
:1009800084E090E00E942E22FC01892BA9F01183C3
:100990000083138212828A819B81892B19F4FB8345
:1009A000EA8306C0A881B9811396FC93EE9312974F
:1009B000F983E88381E001C080E0DF91CF911F914E
:1009C0000F9108956F927F928F929F92AF92BF92F4
:1009D000CF92DF92EF92FF920F931F93CF93DF930B
:1009E000EC018A819B818230910599F054F4019742
:1009F00009F0E3C0EC81FD81E088F1880289138968
:100A000031C18330910509F44EC0049709F491C0B7
:100A1000D4C0888199818130910519F0029719F12C
:100A2000CCC0EC81FD81E088F1880289138920E047
:100A300030E0A901B701C8010E94BC2118160CF0D2
:100A4000BCC0EE81FF81C088D188D289C38920E0F3
:100A500030E0A901B6018D2F9C2F0E94BC211816F1
:100A60000CF4B0C0AAC0EC81FD81E088F188028955
:100A7000138920E030E0A901B701C8010E94BC2120
:100A80000E80DF81C02D18160CF4A8C020E030E0E5
:100A9000A901688979898A899B890E94BC211816D5
:100AA0000CF49CC08AC0888199818130910519F02D
:100AB000029709F182C0EC81FD81E088F18802890A
:100AC000138920E030E0A901B701C8010E94BC21D0
:100AD00018160CF072C0C884D984C6010E94E204C2
:100AE0004B015C0120E030E0A9010E94BC211816F6
:100AF0000CF487C062C0EC81FD81E088F188028936
:100B0000138920E030E0A901B701C8010E94BC218F
:100B1000C884D98418160CF47DC0C6010E94E20472
:100B200020E030E0A9010E94BC2118160CF472C02C
:100B300044C0888199818130910519F0029701F1B3
:100B40003CC078846984872D962D0E94E2046B0155
:100B50007C0120E030E0A9010E94BC2118166CF550
:100B60000A851B85C8010E94E2044B015C0120E05C
:100B700030E0A9010E94BC2118160CF458C01DC019
:100B8000B884A9848B2D9A2D0E94E2046B017C010C
:100B900020E030E0A9010E94BC210A851B851816BF
:100BA0000CF450C0C8010E94E20420E030E0A9012A
:100BB0000E94BC2118160CF445C0E12CF12C00E079
:100BC00010E050C096014D2F5C2FB701C8010E9464
:100BD0005D2087FD47C076010D2F11C0B888C988F8
:100BE000DA88CB892B2D3C2D4D2D5C2FB701C80108
:100BF0000E94BC211816B4F1EB2CFC2C0D2D1C2FDF
:100C000031C0A5019401B701C8010E945D2087FD94
:100C100029C00BC0C6010E94E2049B01AC01B701D0
:100C2000C8010E94BC211816ECF0E601DACEA5013D
:100C30009401C701B6010E945D2087FF11C0C72D36
:100C4000D62DCFCEC8010E94E2049B01AC01C701A2
:100C5000B6010E94BC2118161CF4CB2DDA2DC1CE92
:100C6000E801BFCEB701C801DF91CF911F910F916D
:100C7000FF90EF90DF90CF90BF90AF909F908F90BC
:100C80007F906F900895FC0111821082138212826E
:100C90001582148217821682118610861386128698
:100CA00008954F925F926F927F928F929F92AF9230
:100CB000BF92CF92DF92EF92FF920F931F93CF9349
:100CC000DF93CDB7DEB768970FB6F894DEBF0FBEDF
:100CD000CDBF4D875E876F87788B098B1A8B2B8BE7
:100CE0003C8B2FA538A949A95AA96FA978AD89AD20
:100CF0009AAD0E94F01F6D8B7E8B8F8B988F2D8508
:100D00003E854F855889C701B6010E94F01F6D834B
:100D10007E838F8398872BA53CA54DA55EA56BA9E7
:100D20007CA98DA99EA90E94F01F6B017C012989D5
:100D30003A894B895C89C501B4010E94F01F69871B
:100D40007A878B879C872D813E814F8158856D895D
:100D50007E898F89988D0E94C1214B015C01298574
:100D60003A854B855C85C701B6010E94C1219B0174
:100D7000AC01C501B4010E94F01F2B013C012FA55D
:100D800038A949A95AA969897A898B899C890E94BD
:100D9000F01F4B015C012BA53CA54DA55EA56D8503
:100DA0007E858F8598890E94F01F69837A838B8363
:100DB0009C83A5019401C701B6010E94C1216B016A
:100DC0007C0129813A814B815C816D897E898F8983
:100DD000988D0E94C1219B01AC01C701B6010E9400
:100DE000F01F6B017C01A50194016D817E818F81D3
:100DF00098850E94C1214B015C0129813A814B8178
:100E00005C8169857A858B859C850E94C1219B01C7
:100E1000AC01C501B4010E94F01F4B015C0120E050
:100E200030E0A901C301B2010E945D2087FF04C028
:100E300077FA709477F8709420E030E0A901C70148
:100E4000B6010E945D2087FF04C0F7FAF094F7F81E
:100E5000F09420E030E0A901C501B4010E945D20BA
:100E600087FF04C0B7FAB094B7F8B0942FE632E128
:100E700043E85AE3C301B2010E945D2087FD61C0CF
:100E8000A3019201C701B6010E9462206B017C019F
:100E900020E030E0A9010E945D2087FD52C020E0E3
:100EA00030E040E85FE3C701B6010E94BC2118169C
:100EB0000CF447C0A3019201C501B4010E94622055
:100EC0004B015C0120E030E0A9010E945D2087FD1C
:100ED00038C020E030E040E85FE3C501B4010E9483
:100EE000BC21181674F12D813E814F815885C701B0
:100EF000B6010E94C1219B01AC016D857E858F8565
:100F000098890E94F11FEBADFCAD608371838283F1
:100F1000938329853A854B855C85C701B6010E947C
:100F2000C1219B01AC0169897A898B899C890E94C6
:100F3000F11FEDADFEAD608371838283938381E009
:100F400001C080E068960FB6F894DEBF0FBECDBF3B
:100F5000DF91CF911F910F91FF90EF90DF90CF9095
:100F6000BF90AF909F908F907F906F905F904F90C9
:100F700008950F931F93CF93DF93EC018B0184E0CF
:100F800090E00E942E22FC01892BA9F0118300839E
:100F9000138212828E819F81892B19F4FF83EE8345
:100FA00006C0A885B9851396FC93EE931297F9872E
:100FB000E88781E001C080E0DF91CF911F910F9120
:100FC0000895CF93DF936115710551F0EB016A85A8
:100FD0007B850E94E107CE01DF91CF910C94C32263
:100FE000DF91CF9108958F929F92AF92BF92CF924F
:100FF000DF92EF92FF920F931F93CF93DF936A01DB
:101000007B0148015901FC01C081D1812097C1F0C9
:10101000A70196016A817B818C819D810E945D2060
:1010200081110AC0A50194016E817F81888599850F
:101030000E945D20882331F00990D881C02DE6CF31
:1010400080E001C081E0DF91CF911F910F91FF906F
:10105000EF90DF90CF90BF90AF909F908F900895CA
:10106000AF92BF92CF92DF92EF92FF920F931F93B6
:10107000CF93DF9300D000D0CDB7DEB75C0168011D
:1010800079018CE090E049835A836B837C830E94D2
:101090002E22FC0149815A816B817C81892B49F187
:1010A000118210824283538364837583C682D78200
:1010B000E086F18613861286D50112968D919C9159
:1010C0001397892B39F41396FC93EE931297ED93B3
:1010D000FC930DC0D5018D919C91119791838083D4
:1010E000ED93FC93DC011B96FC93EE931A9781E041
:1010F00001C080E00F900F900F900F90DF91CF9183
:101100001F910F91FF90EF90DF90CF90BF90AF9025
:1011100008952F923F924F925F926F927F928F929B
:101120009F92AF92BF92CF92DF92EF92FF920F9376
:101130001F93CF93DF93CDB7DEB72D970FB6F894FB
:10114000DEBF0FBECDBFDC011696ED91FC91179767
:10115000309709F44CC1A081B1818D919C91119778
:101160008617970709F03FC11C960D911C911D979A
:10117000412C512C320149865A866B867C8601159A
:10118000110509F41EC1F8010284F385E02DFA83EC
:10119000E983309709F412C1D8011296CD90DD9001
:1011A000ED90FC90159782809380A480B580A50176
:1011B0009401C701B6010E945D20F80136802780A6
:1011C000F085FB83D8011996BC91BC83811105C0C1
:1011D000032D122DFD87BD83D5C020E030E0A9018D
:1011E000632D722D8B819C810E945D208823A9F044
:1011F000A981BA8116968D919D910D90BC91A02DDB
:101200008D839E83AF83B88720E030E0A901BC01C5
:10121000CD010E945D20811151C020E030E0A90184
:10122000632D722D8B819C810E94BC21181664F065
:10123000E981FA8106811781F085FD87A981BA814C
:101240001996BC91BD8306C0032D122DEB81ED874D
:10125000FC81FD83A7019601C501B4010E94F01F26
:101260004B015C0198014D855D810E94C12120E008
:1012700030E040E05FE30E94C1218B018D879D83B8
:10128000A981BA8116962D913D914D915C91199746
:10129000632D722D8B819C810E945D2087FF05C08C
:1012A00020E030E040EC5FE304C020E030E040E4C8
:1012B00050E4C501B4010E9462205CC020E030E02F
:1012C000A901632D722D8B819C810E94BC2118166F
:1012D00024F520E030E0A9016D817E818F81988521
:1012E0000E94BC211816CCF42D813E814F81588577
:1012F000632D722D8B819C810E945D20A701960138
:10130000811113C0C501B4010E94F01F4B015C01A3
:10131000232D322D4B815C8120C0C12CD12C760134
:1013200000E010E01D861D822DC0C501B4010E94A1
:10133000F01F4B015C012D813E814F815885632D4B
:10134000722D8B819C810E94F11F20E030E040E0F3
:101350005FE30E94C121A50194010E94C1218B017C
:101360008D879D8320E030E040E05FE3C501B4015C
:101370000E94C1219B01AC01C701B6010E94F11F6F
:101380006B017C0198014D855D81C701B6010E940A
:10139000C1219B01AC0169857A858B859C850E9462
:1013A000F11F69877A878B879C8798014D855D81BE
:1013B000C301B2010E94F11F2B013C0109811A8176
:1013C000DECE20E030E0A901C301B2010E945D2021
:1013D000882369F0A301920169857A858B859C85B4
:1013E0000E94622007C00280F381E02DB1CE60E050
:1013F00070E0CB012D960FB6F894DEBF0FBECDBFC7
:10140000DF91CF911F910F91FF90EF90DF90CF90E0
:10141000BF90AF909F908F907F906F905F904F9014
:101420003F902F900895DC011A96ED91FC911B9747
:10143000309779F0A081B1818D919C911197861799
:10144000970719F412968C9108950280F381E02D8C
:10145000EFCF80E00895DC011296ED91FC91139797
:101460003097A1F0A081B1818D919C911197861741
:10147000970741F412962D933D934D935C931597E6
:1014800081E008950280F381E02DEACF80E00895A5
:101490000F931F93CF93DF93EC018B0184E090E0D7
:1014A0000E942E22FC01892BA9F011830083138254
:1014B00012828A859B85892B19F4FB87EA8706C0EF
:1014C000A885B9851396FC93EE931297F987E88760
:1014D00081E001C080E0DF91CF911F910F910895CD
:1014E0004F925F926F927F928F929F92AF92BF9234
:1014F000CF92DF92EF92FF920F931F93CF93DF93E0
:101500003C018B0184E090E00E942E22EC01892BAB
:1015100009F450C0198308831B821A82D8011696D9
:101520004C90169717965C907201E114F10449F102
:1015300082010115110509F1F801C280D380C1149F
:10154000D104C9F0A080B180D6018D909C90F401A7
:101550002081318142815381D5016D917D918D91A1
:101560009C910E94BC21181634F4F801918280826B
:10157000D601AD92BC928601DCCFF701E280F38008
:10158000D4CFD30116968D919C911797892B29F46E
:101590001796DC93CE93169707C0D3011496ED915E
:1015A000FC911597D383C2831596DC93CE93149741
:1015B00081E001C080E0DF91CF911F910F91FF90FA
:1015C000EF90DF90CF90BF90AF909F908F907F90E3
:1015D0006F905F904F9008950F931F93CF93DF9379
:1015E000EC018B0184E090E00E942E22FC01892B0B
:1015F000A9F011830083138212828A819B81892B37
:1016000019F4FB83EA8306C0A881B9811396FC9381
:10161000EE931297F983E88381E001C080E0DF91C7
:10162000CF911F910F91089560E08AE00E943D02E2
:1016300060E08BE00E943D0260E086E00E943D0297
:1016400060E087E00C943D020F931F93CF93DF93EC
:10165000EC018B0161E08AE00E943D0260E08BE0DA
:101660000E943D0260E086E00E943D0261E087E06A
:101670000E943D02B80189E00E94A902B80185E0FC
:101680000E94A902209761F0BE01DD0F880B990B23
:101690000E942D03DF91CF911F910F910C94140B99
:1016A000DF91CF911F910F9108950F931F93CF93C7
:1016B000DF93EC018B0160E08AE00E943D0261E073
:1016C0008BE00E943D0261E086E00E943D0260E006
:1016D00087E00E943D02B80189E00E94A902B8019A
:1016E00085E00E94A902209761F0BE01DD0F880B02
:1016F000990B0E942D03DF91CF911F910F910C94B4
:10170000140BDF91CF911F910F9108950F931F93A9
:10171000CF93DF93EC018B0161E08AE00E943D02F0
:1017200060E08BE00E943D0261E086E00E943D02A5
:1017300060E087E00E943D02B80189E00E94A902B2
:10174000B80185E00E94A902209761F0BE01DD0F7B
:10175000880B990B0E942D03DF91CF911F910F9160
:101760000C94140BDF91CF911F910F9108950F935B
:101770001F93CF93DF93EC018B0160E08AE00E941E
:101780003D0261E08BE00E943D0260E086E00E9445
:101790003D0261E087E00E943D02B80189E00E94BD
:1017A000A902B80185E00E94A902209761F0BE015C
:1017B000DD0F880B990B0E942D03DF91CF911F91B4
:1017C0000F910C94140BDF91CF911F910F910895FD
:1017D00080E10C94E1008EE00C94E1008FE00C9429
:1017E000E100FC01918D828D981761F0828DDF01FF
:1017F000A80FB11D5D968C91928D9F5F9F73928F04
:1018000090E008958FEF9FEF0895FC01918D828DF8
:10181000981731F0828DE80FF11D858D90E00895C5
:101820008FEF9FEF0895FC01918D228D892F90E01D
:10183000805C9F4F821B91098F739927089580E0E8
:1018400090E0892B29F00E94B20181110C940000D4
:1018500008958F929F92AF92BF92CF92DF92EF92B4
:10186000FF920F931F93CF93DF93CDB7DEB7A1976E
:101870000FB6F894DEBF0FBECDBF6C01990FEE0816
:10188000FF08F7FE33C0E091F301F091F4010190FD
:10189000F081E02D6DE283EF91E009958C01222724
:1018A0003327A9012C193D094E095F0919A2CE0160
:1018B00081967C019AE0892E912CA12CB12CCA0131
:1018C000B901A50194010E94B41F605DF701629304
:1018D0007F01211531054105510589F7BF0183EFCE
:1018E00091E00E94BC01080F191F20C0A7019601BA
:1018F00019A28E010F5D1F4F8AE0C82ED12CE12C5A
:10190000F12CCA01B901A70196010E94B41F605DC4
:10191000F80162938F01211531054105510589F7C1
:10192000BF0183EF91E00E94BC018C0166E971E088
:1019300083EF91E00E94BC01800F911FA1960FB62A
:10194000F894DEBF0FBECDBFDF91CF911F910F91F5
:10195000FF90EF90DF90CF90BF90AF909F908F90CF
:1019600008950F931F93CF93DF93FC01A285B38556
:101970009C918481892B8C93A681B7819C918481D1
:10198000809589238C938BE090E00197F1F7A681F5
:10199000B7819C918481892B8C9383E290E001979D
:1019A000F1F7A681B7819C918481809589238C93DE
:1019B000A285B3859C918481809589238C93A08591
:1019C000B1859C918581892309F055C0EF010E9462
:1019D00008032C853D85890120E030E00855194E2B
:1019E0002F4F3F4FDC01CB01800F911FA21FB31F70
:1019F0008E879F87A88BB98BE885F98590818D812B
:101A0000892361F40E9408030E851F85288939897E
:101A1000061717072807390778F72DC00E94080313
:101A20002C853D85DC01CB01820F931FA11DB11DCB
:101A30008E879F87A88BB98BE885F98590818D81EA
:101A4000892361F00E9408030E851F852889398942
:101A5000061717072807390778F70DC00E940803F3
:101A60002C853D85255031094E855F85241B350B1E
:101A7000620F731F02C060E070E080E090E029E335
:101A800030E040E050E00E94B41FCA01B901DF918C
:101A9000CF911F910F910895FC01848DDF01A80F54
:101AA000B11DA35ABF4F2C91848D90E001968F7386
:101AB0009927848FA689B7892C93A089B1898C91A5
:101AC00080648C93938D848D981306C00288F3896B
:101AD000E02D80818F7D80830895EF92FF920F9398
:101AE0001F93CF93DF93EC0181E0888F9B8D8C8DCA
:101AF000981305C0E889F989808185FD24C0F62EF8
:101B00000B8D10E00F5F1F4F0F731127E02E8C8D90
:101B1000E8120CC00FB607FCFACFE889F98980817A
:101B200085FFF5CFCE010E944C0DF1CF8B8DFE01CC
:101B3000E80FF11DE35AFF4FF0820B8FEA89FB8912
:101B40008081806207C0EE89FF896083E889F98916
:101B500080818064808381E090E0DF91CF911F914C
:101B60000F91FF90EF900895CF93DF93EC01888D54
:101B70008823C9F0EA89FB89808185FD05C0A88991
:101B8000B9898C9186FD0FC00FB607FCF5CF808117
:101B900085FFF2CFA889B9898C9185FFEDCFCE0161
:101BA0000E944C0DE7CFDF91CF910895CF93DF9343
:101BB000CDB7DEB7CA54D1090FB6F894DEBF0FBE59
:101BC000CDBF789484B5826084BD84B5816084BDC6
:101BD00085B5826085BD85B5816085BD80916E00CB
:101BE000816080936E0010928100809181008260FC
:101BF0008093810080918100816080938100809139
:101C000080008160809380008091B1008460809327
:101C1000B1008091B00081608093B00080917A0023
:101C2000846080937A0080917A00826080937A0049
:101C300080917A00816080937A0080917A00806838
:101C400080937A001092C10061E089E00E946D02E9
:101C500061E085E00E946D0261E08AE00E946D0211
:101C600061E08BE00E946D0261E086E00E946D02FF
:101C700061E087E00E946D021092E3021092E2029E
:101C80001092E1021092E0021092DF021092DE0246
:101C90008DE991E09093E5028093E4029091D40263
:101CA000963108F057C02DEB30E03093DF022093DF
:101CB000DE022BE931E03093E1022093E0022CE2D6
:101CC00031E03093E3022093E202209168009830E3
:101CD00050F031E09E3008F430E081E001C0880F20
:101CE0003A95EAF701C084E0822B8093680098302F
:101CF00038F09E3040F0963148F020E030E008C0E7
:101D00002DE630E005C02BE630E002C02CE630E0E6
:101D10003093DC022093DB02983030F481E001C084
:101D2000880F9A95EAF70EC0292F30E09E3018F4FC
:101D30002850310902C02E50310981E001C0880FBE
:101D40002A95EAF78093DD028091E4029091E50202
:101D50000197F1F78091E2029091E302892B21F142
:101D600080919C0190919D0122E0883C9207E1F0D6
:101D7000009711F00E942B048091E6028E7F8093E1
:101D8000E60210929B0110929A0188EC92E09093E7
:101D90009D0180939C01E091DB02F091DC02908137
:101DA0008091DD02892B808362E371E088EC92E010
:101DB0000E94D1018AE090E00E942E228C01E1E095
:101DC000F0E0DC011196FC93EE9317961C921E92A4
:101DD000169719961C921E92189784E190E00E9423
:101DE0002E221C01C12CD12C30EFE32E31E4F32E36
:101DF000DC01CD92DD92ED92FC921397812C912C17
:101E000040E7A42E42E4B42EFC0184829582A6828F
:101E1000B78218968D929D92AD92BC921B97848644
:101E20009586A686B78650961D921D921D921C928D
:101E30005397BC01C8010E94B90784E190E00E9459
:101E40002E229CA38BA3FC0110821182128213828A
:101E5000C482D582E682F782C086D186E286F38686
:101E600084869586A686B786108A118A128A138A76
:101E7000BC01C8010E94B90784E190E00E942E22B3
:101E8000FC01108211821282138214821582168242
:101E900017821086118612861386C486D586E6863A
:101EA000F786108A118A128A138ABC01C8010E941F
:101EB000B90784E190E00E942E229EA38DA3DC014D
:101EC0001D921D921D921C921397FC011482158283
:101ED0001682178218961D921D921D921C921B97B6
:101EE000412C512C50E7652E51E4752E44865586C1
:101EF0006686778650961D921D921D921C9253976E
:101F0000BC01C8010E94B907B8018091C602909136
:101F1000C7020E94EC0A8AE090E00E942E228C0107
:101F200022E030E0FC013183208317821682118683
:101F3000108684E190E00E942E22988F8F8BDC0126
:101F4000CD92DD92ED92FC921397FC0184829582F2
:101F5000A682B78218968D929D92AD92BC921B97E5
:101F600084869586A686B78650961D921D921D92F0
:101F70001C925397BC01C8010E94B90784E190E00C
:101F80000E942E229C8F8B8FFC0110821182128264
:101F90001382C482D582E682F782C086D186E28629
:101FA000F38684869586A686B786108A118A128A59
:101FB000138ABC01C8010E94B90784E190E00E9425
:101FC0002E22FC0110821182128213821482158249
:101FD000168217821086118612861386C486D586CD
:101FE000E686F786108A118A128A138ABC01C80114
:101FF0000E94B90784E190E00E942E229AA789A747
:10200000DC011D921D921D921C921397FC011482FB
:1020100015821682178218961D921D921D921C928F
:102020001B97448655866686778650961D921D922C
:102030001D921C925397BC01C8010E94B907B801B8
:102040008091C6029091C7020E94EC0A8AE090E05B
:102050000E942E228C0123E030E0FC01318320839A
:10206000178216821186108684E190E02A962FAF9F
:102070002A972B963FAF2B970E942E2298A38F8FE3
:10208000DC01CD92DD92ED92FC921397FC018482EB
:102090009582A682B78218968D929D92AD92BC923F
:1020A0001B9784869586A686B78650961D921D92AC
:1020B0001D921C925397BC01C8010E94B90784E18C
:1020C00090E00E942E2298A78FA3FC01108211821B
:1020D00012821382C482D582E682F782C086D186BC
:1020E000E286F38684869586A686B786108A118A4C
:1020F000128A138ABC01C8010E94B90784E190E0EA
:102100000E942E22FC0110821182128213821482FC
:102110001582168217821086118612861386C4864F
:10212000D586E686F786108A118A128A138ABC0140
:10213000C8010E94B90784E190E00E942E229EA768
:102140008DA7DC011D921D921D921C921397FC011C
:10215000148215821682178218961D921D921D9266
:102160001C921B97448655866686778650961D92EC
:102170001D921D921C925397BC01C8010E94B90781
:10218000B8018091C6029091C7020E94EC0A8EE0CD
:1021900090E00E942E228C0141E050E0FC0151832E
:1021A0004083178216821186108613861286158642
:1021B000148684E190E00E942E22FC01108211829C
:1021C00012821382812C912C66E1A62E63E4B62E36
:1021D00084829582A682B78280869186A286B38603
:1021E00084869586A686B786108A118A128A138AF3
:1021F000BC01C8010E94B90784E190E00E942E2230
:102200009EAB8DABDC011D921D921D921C9213970B
:10221000FC0184829582A682B78218968D929D9247
:10222000AD92BC921B97C12CD12C7FE7E72E73E4B3
:10223000F72EC486D586E686F78650961D921D92A7
:102240001D921C925397BC01C8010E94B90784E1FA
:1022500090E00E942E229AAF89AFFC018082918289
:10226000A282B382C482D582E682F782C086D186FA
:10227000E286F386C486D586E686F786108A118ABA
:10228000128A138ABC01C8010E94B907B801809163
:10229000C6029091C7020E94700A8EE090E00E94F0
:1022A0002E228C01E2E0F0E0DC011196FC93EE932B
:1022B00017961C921E92169719961C921E921897AA
:1022C0001B961C921E921A971D961C921E921C978A
:1022D00084E190E00E942E229AAB89ABDC018D92C2
:1022E0009D92AD92BC921397FC0184829582A68246
:1022F000B78218968D929D92AD92BC921B97C12C7D
:10230000D12C81EEE82E83E4F82EC486D586E686AD
:10231000F78650961D921D921D921C925397BD01F7
:10232000C8010E94B90784E190E00E942E229EAF6E
:102330008DAFFC0180829182A282B382C482D58259
:10234000E682F782C086D186E286F386812C912CC4
:1023500091E6A92E94E4B92E84869586A686B78642
:10236000108A118A128A138ABF01C8010E94B90714
:1023700084E190E00E942E22FC01C082D182E282A0
:10238000F38284829582A682B78280869186A28615
:10239000B38684869586A686B786108A118A128AA5
:1023A000138ABC01C8010E94B907B8018091C60216
:1023B0009091C7020E94700A8EE090E00E942E2247
:1023C0008C012A962FAD2A972B963FAD2B97DC01D7
:1023D00011963C932E9317961C921E92169719965F
:1023E0001C921E9218971B961C921E921A971D966D
:1023F0001C921E921C9784E190E00E942E225C01A8
:10240000FC011082118212821382148215821682BC
:102410001782108611861286138620E030E040EA8B
:1024200050E42487358746875787108A118A128A95
:10243000138ABC01C8012A962FAF2A972B963FAF6B
:102440002B9728964FAF289729965FAF29970E9420
:10245000B90784E190E00E942E224C012A962FAD0C
:102460002A972B963FAD2B9728964FAD2897299604
:102470005FAD2997DC012D933D934D935C931397AA
:1024800020E030E040E251E4FC01248335834683C0
:10249000578318962D933D934D935C931B972487F8
:1024A00035874687578750961D921D921D921C9224
:1024B0005397BC01C8012A962FAF2A972B963FAF9E
:1024C0002B9728964FAF289729965FAF29970E94A0
:1024D000B90784E190E00E942E226C012A962FAD6C
:1024E0002A972B963FAD2B9728964FAD2897299684
:1024F0005FAD2997FC01208331834283538344825B
:1025000055826682778240865186628673864486CB
:10251000558666867786108A118A128A138ABC01CC
:10252000C8010E94B907B8018091C6029091C70204
:102530000E94700A8CE090E00E942E223C010E94D2
:1025400043062F89388D232BE1F04F8D58A1452B61
:10255000C1F0E1E0F0E0D3011196FC93EE9322E0AC
:1025600030E013963C932E9312974F89588D159611
:102570005C934E9314972F8D38A117963C932E930E
:1025800016978CE090E00E942E228C010E94430658
:1025900021143104B9F061147104A1F081E090E0DC
:1025A000D80111969C938E9383E090E013969C93B0
:1025B0008E93129715963C922E92149719967C92B0
:1025C0006E92189784E090E00E942E222C01FC016C
:1025D000138212821182108269AD7AAD0E94BA0410
:1025E00087E090E00E942E22FC0166246394712C07
:1025F0007182608214830383568245821282BC01F9
:102600008091C6029091C7020E94480A84E090E03F
:102610000E942E228C01DC0113961C921E921297AE
:102620001D921C9269A97AA90E94BA04B401C8013A
:102630000E94BA048CE090E00E942E224C010E947D
:10264000430629A53AA52115310549F0D401139671
:102650007C926E92129715963C932E93149787E076
:1026600090E00E942E22FC0182E090E09183808322
:1026700094828382168305831282BF018091C602F1
:102680009091C7020E94480A8CE090E00E942E229E
:102690004C010E9443062DA53EA52115310559F098
:1026A00081E090E0D40113969C938E931297159637
:1026B0003C932E93149784E090E00E942E228C018C
:1026C000FC01138212821182108269A97AA90E94E8
:1026D000BA04B501C8010E94BA0487E090E00E94E4
:1026E0002E22FC0183E090E0918380839482838298
:1026F000168305831282BF018091C6029091C702A2
:102700000E94480A8CE090E00E942E228C010E94D8
:1027100043062B8D3C8D21153105B9F04F89588D1D
:102720004115510591F082E090E0D80111969C93FB
:102730008E9313969C938E93129715963C932E939B
:10274000149717965C934E9316978CE090E00E9436
:102750002E225C010E9443062FA138A521153105C8
:10276000B9F04F8D58A14115510591F082E090E0EC
:10277000D50111969C938E9313969C938E931297EA
:1027800015963C932E93149717965C934E93169739
:102790008CE090E00E942E227C010E9443060115ED
:1027A000110581F0A114B10469F081E090E0F70116
:1027B0009183808384E090E09383828311870087F4
:1027C000B386A2868CE090E00E942E228C010E94AB
:1027D00043062BA13CA121153105B9F0E114F10408
:1027E000A1F081E090E0D80111969C938E9383E054
:1027F00090E013969C938E93129715963C932E938C
:1028000014971996FC92EE92189784E090E00E943B
:102810002E227C01FC0113821282118210826DA98A
:102820007EA90E94BA0487E090E00E942E22FC015B
:1028300084E090E09183808314830383F682E582B1
:102840001282BF018091C6029091C7020E94480A7D
:1028500084E090E00E942E228C01DC0113961C92F1
:102860001E9212971D921C926DAD7EAD0E94BA040D
:10287000B601C8010E94BA048CE090E00E942E22AA
:102880006C010E9443062DA13EA12115310559F08E
:1028900081E090E0D60113969C938E931297159643
:1028A0003C932E93149787E090E00E942E22FC0127
:1028B00085E090E091838083D482C3821683058370
:1028C0001282BF018091C6029091C7020E94480AFD
:1028D0008CE090E00E942E228C010E9443062B8DFA
:1028E0003C8D21153105B9F04FA158A54115510571
:1028F00091F082E090E0D80111969C938E9313960C
:102900009C938E93129715963C932E93149717963B
:102910005C934E9316978CE090E00E942E226C01FF
:102920000E9443062114310481F00115110569F05C
:1029300081E090E0F6019183808383E090E09383CF
:102940008283358224821187008787E090E00E948D
:102950002E22FC0186E090E091838083D482C382A2
:10296000F682E5821282BF018091C6029091C70271
:102970000E94480A9E01275F3F4F3C8B2B8BAE0184
:10298000435F5F4F5E8B4D8B88EC92E00E94770136
:10299000892B11F40C94D81D88EC92E00E948F01D1
:1029A0008093A3018F3409F473C0863481F488ECDA
:1029B00092E00E948F01182F8093A2016AEF70E0CD
:1029C00080E090E00E94B70B1F3489F761C0823429
:1029D00081F488EC92E00E948F01182F8093A2016D
:1029E0006AEF70E080E090E00E94860B1F3489F768
:1029F0004FC08C3481F488EC92E00E948F01182F34
:102A00008093A20168EC70E080E090E00E94240BCB
:102A10001F3489F73DC0823581F488EC92E00E9432
:102A20008F01182F8093A20168EC70E080E090E0A5
:102A30000E94550B1F3489F72BC0813409F077C0F1
:102A400088EC92E00E948F018093A2010E94EE0B1D
:102A5000019709F10E94EE0B019739F10E94EE0BEC
:102A6000019769F10E94EE0B892BA1F10E94EE0BF8
:102A7000892BD1F10E94EE0B019709F440C00E940E
:102A8000EE0B892B09F447C08091A2018F34C1F667
:102A90000E94140B4CC00E94E80B892BD9F60E94AF
:102AA000EB0B0197B9F60C94DC1D0E94E80B019723
:102AB000A9F60E94EB0B019789F60C94EE1D0E947B
:102AC000E80B019779F60E94EB0B892B11F40C941B
:102AD000001EC8CF0E94E80B019741F60E94EB0B45
:102AE000019721F60C94121E0E94E80B892B11F617
:102AF0000E94EB0B019709F0BDCF0C94241E0E949D
:102B0000E80B892B09F0BBCF0E94EB0B892B11F44A
:102B10000C94361EB4CF0E94E80B892B09F0B4CF79
:102B20000E94EB0B892B11F40C94481EADCFAE0123
:102B30004B5F5F4F5A8B498B8091A301833511F016
:102B40000C94D81D88EC92E00E948F018093A20122
:102B50006CE471E083EF91E00E94D10184EB92E09C
:102B60000E94B10CCB016D33710514F4009711F480
:102B70008CE390E00E94290C82EA92E00E94B10C62
:102B8000CB016D33710514F4009711F48CE390E0E0
:102B90000E94290C80E992E00E94B10CCB016D33B8
:102BA000710514F4009711F48CE390E00E94290C55
:102BB00082EA92E00E94B10C6D3371051CF461153C
:102BC000710511F46CE370E0072E000C880B990B73
:102BD0000E940C219B01AC0161E070E08091C60273
:102BE0009091C7020E942B0A84EB92E00E94B10CE4
:102BF0006D3371051CF46115710511F46CE370E01F
:102C0000072E000C880B990B0E940C219B01AC0134
:102C100062E070E08091C6029091C7020E942B0A88
:102C200080E992E00E94B10C6D3371051CF46115CE
:102C3000710511F46CE370E0072E000C880B990B02
:102C40000E940C219B01AC0163E070E08091C60200
:102C50009091C7020E942B0A8091C6029091C702F0
:102C60009CA38BA3DC0112962D903C9013979101AD
:102C700021153105E1F0F901A081B18116960D9081
:102C8000BC91A02D109769F08D919C911197FC013A
:102C9000108A118A128A138A12960D90BC91A02D67
:102CA000F1CFD90112962D913C911397E1CFEBA171
:102CB000FCA10680F781E02DF8A7EFA39F01211565
:102CC0003105A1F1F901A081B18116960D90BC9159
:102CD000A02D109769F08D919C911197FC01108A9D
:102CE000118A128A138A12960D90BC91A02DF1CFF1
:102CF000D90112962D913C911397E1CFAB8DBC8DEC
:102D00000D911C910115110501F5AB8DBC8D12962D
:102D10000D90BC91A02DBC8FAB8FEB8DFC8DEF2B5C
:102D200069F7D10112962D903C901397211431042C
:102D300009F41AC1F1010190F081E02DFEA3EDA389
:102D4000268137813C8F2B8FE8CFEDA1FEA1C28079
:102D5000D380E480F580D8012D913D914D915C9117
:102D60002F8B388F498F5A8FC701B6010E945D2083
:102D7000F801448055806680778087FF22C0A301D8
:102D800092016F89788D898D9A8D0E945D208111C5
:102D9000E5C0D8011896CD90DD90ED90FC901B9782
:102DA000A7019601C301B2010E945D20882309F4A6
:102DB000D5C0F8012485358546855785C701B601FC
:102DC000BDC02F89388D498D5A8DC701B6010E942B
:102DD000BC2187FD34C0A3019201C701B6010E9446
:102DE0005D2087FF2CC02F89388D498D5A8DC301F6
:102DF000B2010E94F01F9B01AC0160E070E080E82E
:102E00009FE30E9462204B015C01A3019201C70174
:102E1000B6010E94F01F9B01AC01C501B4010E94E4
:102E2000C12120E030E040E85FE30E94F11FD801BB
:102E300050966D937D938D939C93539766CFA3018A
:102E40009201C701B6010E94BC2187FD0CC0F801A8
:102E50002085318542855385C701B6010E945D20DA
:102E600018160CF06FC0F80180849184A284B3849A
:102E7000A5019401C701B6010E94BC21D8011C968E
:102E80002D913D914D915C911F972F8F38A349A3B0
:102E90005AA3181684F5C701B6010E945D201816C2
:102EA00054F12F8D38A149A15AA1C501B4010E9446
:102EB000F01F9B01AC0160E070E080E89FE30E949E
:102EC00062202B013C01A5019401C701B6010E94BB
:102ED000F01F9B01AC01C301B2010E94C12120E09F
:102EE00030E040E85FE30E94F11FF801608B718BD6
:102EF000828B938B0ACF2F8D38A149A15AA1C7018C
:102F0000B6010E94BC2118160CF0FFCE2F8D38A1FF
:102F100049A15AA1C501B4010E945D2081111EC0C2
:102F2000A3019201C501B4010E945D208823B1F084
:102F30002F89388D498D5A8DC301B2010E945D20C1
:102F4000882361F020E030E040E85FE3D80150964C
:102F50002D933D934D935C935397D7CEF801108AF0
:102F6000118A128A138AD1CEEBA1FCA102851385A6
:102F7000772473940115110509F44AC0D801ED9026
:102F8000FC90F701838194810097B1F10E94E204E3
:102F90004B015C0120E030E0A9010E94BC21181621
:102FA00024F4D70112967C9202C0F7011282D70155
:102FB0001596ED91FC911697E280F380E114F104EF
:102FC000D9F0F701C080D180A5019401D6015096B7
:102FD0006D917D918D919C9153970E945D2087FF0B
:102FE00005C0F601808A918AA28AB38AD701129617
:102FF000ED90FC901397E2CFF80102811381BACFD4
:10300000AFA1B8A512960D90BC91A02DB8A7AFA303
:10301000EFA1F8A5EF2B09F406C4AFA1B8A50D9058
:10302000BC91A02DB88FAF8B3D01BAE06B0E711C27
:10303000EF89F88D64857585C3010E94E107AF892A
:10304000B88D1D961C921E921C971B961C921E9268
:103050001A9716964D905C9017974114510409F4F5
:10306000B1C1F2010081118120E030E0A901D80155
:1030700050966D917D918D919C9153970E94BC21AA
:1030800018160CF09BC1F801C080D180E280F3805B
:103090002481358146815781C701B6010E945D2098
:1030A000882391F000E010E09801B701A601C30168
:1030B0000E94F307811108C000E010E09801B701F9
:1030C000A601C3010E943008D2010D911C91F801A4
:1030D000C480D580E680F780208531854285538580
:1030E000C701B6010E945D20811130C0D801BC919A
:1030F000BB8FF801F181FF8FD80112963C90129797
:1031000013962C9013971C96BC91BBA3F801F585E0
:10311000FDA3D8011E96BC91B9A7F801B7847BA185
:103120006DA1272F362F4B2F5B2DBB8DAF8DF1015E
:103130006B2F7A2F8F2F9E2F0E945D208111B6C595
:10314000F80180889188A288B388FFC0F801808840
:103150009188A288B38820E030E040E85FE3682DE2
:10316000792D8A2D9B2D0E945D20811120C000E0C9
:1031700010E020E83FE3B701A601C3010E94F30776
:10318000811109C000E010E020E83FE3B701A6018B
:10319000C3010E943008D201ED91FC918088918892
:1031A000A288B388C084D184E284F384CEC0CD8663
:1031B000DE86EF86F88A9401F501C901DF0189876F
:1031C0009A87AB87BC87D8017C9111966C91119737
:1031D00012965C91129713964C91BC89BF938B8980
:1031E0008F939E899F93AD89AF93FF93EF933F9306
:1031F0002F93D8011F968C911F978F931E968C91B9
:103200001E978F931D968C911D978F931C968C9172
:103210008F93FF93EF933F932F934F935F936F930E
:103220007F93812C912C80E8A82E8FE3B82E00E0AC
:1032300010E09801FB01CA014F2F5E2F692F782FF4
:103240008F89988D0E94510689849A84AB84BC84AE
:10325000CD84DE84EF84F88895018401B701A6014E
:10326000C3010E94F3070FB6F894DEBF0FBECDBFB7
:10327000811107C095018401B701A601C3010E9415
:103280003008D201ED91FC9184819581A681B781AE
:103290008D839E83AF83B8875089418992898389C2
:1032A000252F342F8C01C901A12FB02F89839A8338
:1032B000AB83BC83E484F584B685A78540855185BE
:1032C0006285738581E090E08C0F9D1F9F938F93A3
:1032D0009A899F9389898F930F931F933F932F937D
:1032E000AF93BF93FF92EF920F931F933F932F9350
:1032F00083818F9382818F9381818F9380818F933C
:10330000812C912C5401CD01CE2CDF2CE92EF82EEE
:1033100000E010E020E83FE38F89988D0E9451067D
:1033200089809A80AB80BC80CD80DE80EF80F8847D
:1033300095018401B701A601C3010E94F3070FB6EE
:10334000F894DEBF0FBECDBF07C095018401B70161
:10335000A601C3010E94F307811107C095018401F2
:10336000B701A601C3010E943008D201ED90FC9084
:10337000F70184849584A684B784A50194016085AF
:103380007185828593850E945D208823B9F000E0D5
:1033900010E09801B501A401C3010E94F30788233E
:1033A00009F4E4C4D7012D913D914D915C91C50183
:1033B000B4010E945D20882309F4D8C4F201428040
:1033C00053804BCEAF89B88D1C960D90BC91A02D2B
:1033D000BCA3ABA32BA13CA1232B09F411CE0BA1C1
:1033E0001CA1F801E080F180E114F10481F0F70103
:1033F0002281338144815581D80112966D917D914E
:103400008D919C9115970E945D2087FF06C0180141
:1034100023961FAF0EAF239713C08701E2CF208101
:10342000318138A32F8F232BA1F42396EEADFFAD6E
:1034300023970190F081E02D2396FFAFEEAF239705
:103440002396AEADBFAD2397ED91FC91309739F740
:10345000E2C1D8011A960D90BC91A02DBEA3ADA3D8
:10346000D80112962D913D914D915C911597219621
:103470002CAF3DAF4EAF5FAF219716962D913D918A
:103480004D915C91199729AF3AAF4BAF5CAF228158
:103490003381448155812DAB3EAB4FAB58AF868114
:1034A0009781A085B18589AB9AABABABBCAB9C01D6
:1034B000AD01AF8DB8A116966D917D918D919C91C6
:1034C00019970E94F01F27966CAF7DAF8EAF9FAF0C
:1034D000279721962CAD3DAD4EAD5FAD2197EDA167
:1034E000FEA162817381848195810E94F01F6DA786
:1034F0007EA78FA798AB2DA93EA94FA958ADAF8D38
:10350000B8A112966D917D918D919C9115970E9415
:10351000F01F2B013C0129AD3AAD4BAD5CADEDA1E7
:10352000FEA166817781808591850E94F01F69A741
:103530007AA78BA79CA72DA53EA54FA558A927968E
:103540006CAD7DAD8EAD9FAD27970E94C1216B0103
:103550007C0129A53AA54BA55CA5C301B2010E9437
:10356000C1219B01AC01C701B6010E94F01F6B8F06
:103570007C8F8D8F9E8F29A93AA94BA95CA969AD33
:103580007AAD8BAD9CAD0E94F01F4B015C012DA963
:103590003EA94FA958AD21966CAD7DAD8EAD9FADC6
:1035A00021970E94F01F6B017C01A5019401C301CA
:1035B000B2010E94C1212B013C01A701960127966F
:1035C0006CAD7DAD8EAD9FAD27970E94C1219B0153
:1035D000AC01C301B2010E94F01F2B013C01A50107
:1035E00094016DA57EA58FA598A90E94C1214B01CC
:1035F0005C01A701960169A57AA58BA59CA50E94EF
:10360000C1219B01AC01C501B4010E94F01F6B01F7
:103610007C0120E030E0A9016B8D7C8D8D8D9E8D2D
:103620000E945D2087FF09C02B8D3C8D4D8D5E8DE6
:1036300050582B8F3C8F4D8F5E8F20E030E0A901DA
:10364000C301B2010E945D2087FF04C077FA709425
:1036500077F8709420E030E0A901C701B6010E941C
:103660005D2087FF04C0F7FAF094F7F8F0942FE696
:1036700032E143E85AE36B8D7C8D8D8D9E8D0E94E7
:103680005D2087FDD2CE2B8D3C8D4D8D5E8DC3018F
:10369000B2010E9462204B015C0120E030E0A901F0
:1036A0000E945D2087FDC1CE20E030E040E85FE36E
:1036B000C501B4010E94BC2118160CF4B6CE2B8DA6
:1036C0003C8D4D8D5E8DC701B6010E9462206B015D
:1036D0007C0120E030E0A9010E945D2087FDA5CE9D
:1036E00020E030E040E85FE3C701B6010E94BC2162
:1036F00018160CF49ACE8CE090E00E942E227C01E9
:10370000009709F492CEEF8DF8A1DC01ED93FC93C4
:103710002DA53EA54FA558A9C501B4010E94C12100
:103720009B01AC0121966CAD7DAD8EAD9FAD219717
:103730000E94F11FD70112966D937D938D939C93F8
:10374000159729A53AA54BA55CA5C501B4010E9412
:10375000C1219B01AC0169AD7AAD8BAD9CAD0E94DE
:10376000F11FF70166837783808791872DA13EA1A2
:1037700033872287AF8DB8A11B96FC92EE921A97E1
:10378000F901F182E082D10112962D913D914D9186
:103790005C9115971696CD90DD90ED90FC90199761
:1037A0000C9111961C91C1012A962FAF2A972B9646
:1037B0003FAF2B9728964FAF289729965FAF299751
:1037C0000E94C3222A962FAD2A972B963FAD2B97A6
:1037D00028964FAD289729965FAD29976DA97EA9A8
:1037E0008FA998AD0E945D2081110AC0A7019601A2
:1037F00069A97AA98BA99CA90E945D20882321F040
:103800001801012B09F0BFCFEF89F88D0484F585ED
:10381000E02DFCA3EBA3EBA1FCA10284F385E02D3A
:10382000FCA3EBA3D7CD6DE571E083EF91E00E949F
:10383000D10161E070E08091C6029091C7020E94C0
:10384000130A90E00E94290C62E070E08091C602A9
:103850009091C7020E94130A90E00E94290C63E035
:1038600070E08091C6029091C7020E94130A90E016
:103870000E94290C64E070E08091C6029091C7021A
:103880000E94130A90E00E94290C65E070E080918C
:10389000C6029091C7020E94130A90E00E94290C70
:1038A00066E070E08091C6029091C7020E94130A00
:1038B00090E00E94290C67E070E08091C602909130
:1038C000C7020E94130A90E00E94290C68E070E091
:1038D0008091C6029091C7020E94130A90E00E9454
:1038E000290C69E070E08091C6029091C7020E94A5
:1038F000130A90E00E94290CA090C602B090C70263
:1039000061E070E0C5010E9489080E94D4206F8B9D
:10391000788F898F9A8F2F88388C62E070E0C5018C
:103920000E9489080E94D4206B017C0163E070E052
:10393000C5010E9489080E94D4202B013C018B0103
:1039400064E070E0C5010E9489084B015C0165E6F6
:1039500071E083EF91E00E94D1018F89988D0E94E0
:10396000290CC2010E94290CC501B4010E94D42077
:10397000CB010E94290CC2010597059740F568E824
:1039800071E083EF91E00E94D101C6010E94290CF1
:103990006DE770E0C6010E94550B8091A0019091E7
:1039A000A1018130910509F0EFC020919E01309175
:1039B0009F01232B09F0E8C090939F0180939E0103
:1039C00082E090E09093A1018093A001DDC0F1E03E
:1039D0004F1A510829E04216510480F565E771E05D
:1039E00083EF91E00E94D101C6010E94290C6DE78E
:1039F00070E0C6010E94240B8091A0019091A1016A
:103A0000892B31F481E090E09093A1018093A00193
:103A10008091A0019091A101029709F0B5C06DE7D6
:103A200070E081EE90E00E94860B1092A10110924E
:103A3000A00110929F0110929E0147C0101611061E
:103A40000CF08DC084EB92E00E94B10C8B016D33C1
:103A5000710514F4672B11F40CE310E080E992E097
:103A60000E94B10C6D3371051CF46115710511F4E0
:103A70006CE370E0061717070CF451C06DE770E0B7
:103A8000C6010E94240B6FE671E083EF91E00E9473
:103A9000D101C6010E94290C8091A0019091A10141
:103AA000892B31F481E090E09093A1018093A001F3
:103AB0008091A0019091A101029709F065C06DE786
:103AC00070E081EE90E00E94860B84EB92E00E9411
:103AD000B10C8B016D33710514F4672B11F40CE3F9
:103AE00010E080E992E00E94B10C6D3371059CF00A
:103AF0006CE370E0061717073CF06DE770E080E2BA
:103B000093E00E94240B40C06DE770E080E293E0F8
:103B10000E94550B39C06115710551F3EBCF6DE76C
:103B200070E0C6010E94550B62E871E083EF91E0FE
:103B30000E94D101C6010E94290C8091A0019091A0
:103B4000A1018130910501F520919E0130919F01E5
:103B5000232BD1F490939F0180939E0115C06F8910
:103B6000788D3BEA231631041CF088E290E002C015
:103B700089E190E00E94B70B1092A1011092A00180
:103B800010929F0110929E018091A0019091A1013D
:103B90000E94290C80919E0190919F010E94290C06
:103BA0008091A2018F3411F00C949C150E94140B8B
:103BB0000E941F0C0C94C41488EC92E00E948F01A8
:103BC0008093A2018F3411F40C942A156AE570E0F9
:103BD00080E090E00E94B70B0C94261588EC92E0F0
:103BE0000E948F018093A2018F3411F40C942E1542
:103BF0006AE570E080E090E00E94B70B0C942A1513
:103C000088EC92E00E948F018093A2018F3411F41E
:103C10000C94321560EA70E080E090E00E94550B51
:103C20000C942E1588EC92E00E948F018093A201E3
:103C30008F3411F40C94361560EA70E080E090E067
:103C40000E94240B0C94321588EC92E00E948F01A4
:103C50008093A2018F3411F40C943A1568EC70E053
:103C600080E090E00E94240B0C94361588EC92E0E2
:103C70000E948F018093A2018F3411F40C943F15A0
:103C800068EC70E080E090E00E94550B0C943A15CF
:103C900088EC92E00E948F018093A2018F3411F48E
:103CA0000C9444150E94140B0C943F15D8015096A7
:103CB000AC90509751969C90519752968C905297F9
:103CC00053961C9120E030E040E85FE36A2D792DA7
:103CD000882D912F0E945D20811110C000E010E01E
:103CE00020E83FE3B701A601C3010E94F307811159
:103CF0003CCB00E010E020E83FE332CBCD86DE860F
:103D0000EF86F88A2A2D392D482D512FC901DA0165
:103D100089879A87AB87BC87FC89FF938B898F93B0
:103D20009E899F93AD89AF931F938F929F92AF927D
:103D3000BF92B9A5BF93EDA1EF93FBA1FF931F9392
:103D40008F929F92AF922F923F922F8D2F933B8D08
:103D50003F93812C912C90E8A92E9FE3B92E00E08F
:103D600010E09801FB8DEF8DC10166CA00E010E004
:103D70009801B501A401C3010E9430081FCB8AE15C
:103D800091E09093C9028093C80288EC92E00C9471
:103D90002B041092F6011092F50188EE93E0A0E05A
:103DA000B0E08093F7019093F801A093F901B093EC
:103DB000FA012AE031E03093F4012093F30125EC7D
:103DC00030E0309300022093FF0124EC30E0309388
:103DD00002022093010220EC30E030930402209391
:103DE000030221EC30E0309306022093050222EC1E
:103DF00030E0309308022093070226EC30E0309345
:103E00000A022093090210920C0210920D021092E5
:103E10000E0210920F021092CB021092CA028093EF
:103E2000CC029093CD02A093CE02B093CF028AE150
:103E300091E09093C9028093C8021092DF02109221
:103E4000DE021092E1021092E0021092E302109260
:103E5000E2021092E5021092E4026091E6026E7FA7
:103E60006D7F6093E6026695617081E0682780E06F
:103E70000E943D0261E080E00E946D02EEEAF0E007
:103E8000E491E093D802EAE9F0E0E491F0E0EE0F8B
:103E9000FF1FEA57FF4F859194919093DA02809328
:103EA000D90260E081E00E946D028091E60281FD0E
:103EB00004C061E081E00E943D0281E08093D40271
:103EC000EFEAF0E0E491E093D502EBE9F0E0E49171
:103ED000F0E0EE0FFF1FE057FF4F85919491909314
:103EE000D7028093D6028CE090E00E942E22FC0143
:103EF0001382128211821082178216821582148216
:103F000013861286118610869093C7028093C6028C
:103F100024E630E042E063E084EB92E00E94680433
:103F200024E630E044E068E082EA92E00E9468041F
:103F300024E630E04CE06DE080E992E00C94680407
:103F400097FB072E16F4009407D077FD09D00E9446
:103F5000D61F07FC05D03EF4909581959F4F08959C
:103F6000709561957F4F0895A1E21A2EAA1BBB1B85
:103F7000FD010DC0AA1FBB1FEE1FFF1FA217B30735
:103F8000E407F50720F0A21BB30BE40BF50B661F4B
:103F9000771F881F991F1A9469F76095709580950F
:103FA00090959B01AC01BD01CF010895AA1BBB1BDD
:103FB00051E107C0AA1FBB1FA617B70710F0A61B29
:103FC000B70B881F991F5A95A9F780959095BC014A
:103FD000CD010895EE0FFF1F0590F491E02D099497
:103FE0005058BB27AA270E9408200C9482210E94C7
:103FF000742138F00E947B2120F039F49F3F19F49E
:1040000026F40C9471210EF4E095E7FB0C946B21DF
:10401000E92F0E94932158F3BA17620773078407A8
:10402000950720F079F4A6F50C94B5210EF4E095EF
:104030000B2EBA2FA02D0B01B90190010C01CA0162
:10404000A0011124FF27591B99F0593F50F4503E0D
:1040500068F11A16F040A22F232F342F4427585FFF
:10406000F3CF469537952795A795F0405395C9F717
:104070007EF41F16BA0B620B730B840BBAF09150CF
:10408000A1F0FF0FBB1F661F771F881FC2F70EC06E
:10409000BA0F621F731F841F48F487957795679541
:1040A000B795F7959E3F08F0B0CF9395880F08F02D
:1040B0009927EE0F9795879508950E94472108F458
:1040C00081E008950E9476200C9482210E947B2139
:1040D00058F00E94742140F029F45F3F29F00C94BD
:1040E0006B2151110C94B6210C9471210E949321E3
:1040F00068F39923B1F3552391F3951B550BBB2717
:10410000AA2762177307840738F09F5F5F4F220F5B
:10411000331F441FAA1FA9F335D00E2E3AF0E0E852
:1041200032D091505040E695001CCAF72BD0FE2F9C
:1041300029D0660F771F881FBB1F26173707480730
:10414000AB07B0E809F0BB0B802DBF01FF279358E8
:104150005F4F3AF09E3F510578F00C946B210C9420
:10416000B6215F3FE4F3983ED4F386957795679543
:10417000B795F7959F5FC9F7880F911D969587951D
:1041800097F90895E1E0660F771F881FBB1F62173C
:1041900073078407BA0720F0621B730B840BBA0BFA
:1041A000EE1F88F7E09508950E94DB206894B11116
:1041B0000C94B62108950E949B2188F09F5798F097
:1041C000B92F9927B751B0F0E1F0660F771F881F1C
:1041D000991F1AF0BA95C9F714C0B13091F00E9436
:1041E000B521B1E008950C94B521672F782F882769
:1041F000B85F39F0B93FCCF3869577956795B3955D
:10420000D9F73EF490958095709561957F4F8F4FCB
:104210009F4F0895E89409C097FB3EF490958095D0
:10422000709561957F4F8F4F9F4F9923A9F0F92F7C
:1042300096E9BB279395F695879577956795B795FA
:10424000F111F8CFFAF4BB0F11F460FF1BC06F5FE0
:104250007F4F8F4F9F4F16C0882311F096E911C0F2
:10426000772321F09EE8872F762F05C0662371F013
:1042700096E8862F70E060E02AF09A95660F771F27
:10428000881FDAF7880F9695879597F90895990F03
:104290000008550FAA0BE0E8FEEF16161706E80710
:1042A000F907C0F012161306E407F50798F0621B31
:1042B000730B840B950B39F40A2661F0232B242B06
:1042C000252B21F408950A2609F4A140A6958FEF25
:1042D000811D811D089597F99F6780E870E060E077
:1042E00008959FEF80EC089500240A94161617068F
:1042F00018060906089500240A94121613061406D7
:1043000005060895092E0394000C11F4882352F039
:10431000BB0F40F4BF2B11F460FF04C06F5F7F4FF1
:104320008F4F9F4F089557FD9058440F551F59F0D8
:104330005F3F71F04795880F97FB991F61F09F3F92
:1043400079F087950895121613061406551FF2CFBB
:104350004695F1DF08C0161617061806991FF1CF0B
:1043600086957105610508940895E894BB27662732
:104370007727CB0197F908950E94472108F48FEF22
:1043800008950E94D4210C9482210E94742138F057
:104390000E947B2120F0952311F00C946B210C944A
:1043A000712111240C94B6210E94932170F3959FE2
:1043B000C1F3950F50E0551F629FF001729FBB271C
:1043C000F00DB11D639FAA27F00DB11DAA1F649FB8
:1043D0006627B00DA11D661F829F2227B00DA11D6B
:1043E000621F739FB00DA11D621F839FA00D611DF1
:1043F000221F749F3327A00D611D231F849F600D12
:10440000211D822F762F6A2F11249F5750409AF03A
:10441000F1F088234AF0EE0FFF1FBB1F661F771FC6
:10442000881F91505040A9F79E3F510580F00C9491
:104430006B210C94B6215F3FE4F3983ED4F386954C
:1044400077956795B795F795E7959F5FC1F7FE2B31
:10445000880F911D9695879597F90895CF93DF93CF
:104460008230910510F482E090E0E091E902F09151
:10447000EA0220E030E0C0E0D0E0309711F1408166
:10448000518148175907C0F04817590761F48281D4
:104490009381209719F09B838A832BC09093EA0223
:1044A0008093E90226C02115310519F04217530700
:1044B00018F49A01BE01DF01EF010280F381E02DC3
:1044C000DCCF2115310509F1281B390B24303105CA
:1044D00090F412968D919C9113976115710521F0BE
:1044E000FB019383828304C09093EA028093E902E4
:1044F000FD01329644C0FD01E20FF31F81939193B9
:10450000225031092D933C933AC02091E70230911B
:10451000E802232B41F420910201309103013093F2
:10452000E8022093E702209100013091010121155A
:10453000310541F42DB73EB740910401509105017A
:10454000241B350BE091E702F091E802E217F30734
:10455000A0F42E1B3F0B2817390778F0AC014E5FF3
:104560005F4F2417350748F04E0F5F1F5093E80246
:104570004093E7028193919302C0E0E0F0E0CF0125
:10458000DF91CF9108950F931F93CF93DF930097FF
:1045900009F48CC0FC013297138212820091E90267
:1045A0001091EA020115110581F420813181820FF9
:1045B000931F2091E7023091E8022817390779F517
:1045C000F093E802E093E70271C0D80140E050E0C8
:1045D000AE17BF0750F412962D913C911397AD0181
:1045E0002115310509F1D901F3CF9D01DA0133839A
:1045F000228360817181860F971F8217930769F468
:10460000EC0128813981260F371F2E5F3F4F318300
:1046100020838A819B8193838283452B29F4F093A5
:10462000EA02E093E90242C01396FC93EE931297DC
:10463000ED01499159919E01240F351FE217F307AF
:1046400071F480819181840F951F029611969C933D
:104650008E938281938113969C938E931297E0E0C0
:10466000F0E0D80112968D919C911397009719F064
:10467000F8018C01F6CF8D919C9198012E5F3F4FF0
:10468000820F931F2091E7023091E8022817390723
:1046900069F4309729F41092EA021092E90202C0FC
:1046A000138212821093E8020093E702DF91CF9108
:1046B0001F910F91089581E090E0F8940C9460238D
:1046C00010E0C2E6D0E004C0FE010E94EA1F21967D
:0A46D000C336D107C9F7F894FFCFF5
:1046DA000000EB028000000000006D0D8D00130C3D
:1046EA00F10B050CB40D0000000023018D007701C9
:1046FA008F010A0122010D000C00080004000300CA
:10470A0002005465726D696E61746F7220302E37C3
:10471A0020636F6E6E65637465642E006F727967CD
:10472A00696E616C6E79207072696E74005A617379
:10473A006164793A0044656666757A696679004902
:10474A006E6E653A204C65776F206F206D6F6379C6
:10475A003A00496E6E65203A507261776F206F2079
:0A476A006D6F63793A000D0A00003C
:00000001FF
